{
  "_format": "hh-sol-artifact-1",
  "contractName": "EventSeller",
  "sourceName": "contracts/EventSeller.sol",
  "abi": [
    {
      "anonymous": false,
      "inputs": [
        {
          "indexed": true,
          "internalType": "address",
          "name": "previousOwner",
          "type": "address"
        },
        {
          "indexed": true,
          "internalType": "address",
          "name": "newOwner",
          "type": "address"
        }
      ],
      "name": "OwnershipTransferred",
      "type": "event"
    },
    {
      "inputs": [
        {
          "internalType": "uint256",
          "name": "tokenId",
          "type": "uint256"
        }
      ],
      "name": "buyEventPass",
      "outputs": [],
      "stateMutability": "payable",
      "type": "function"
    },
    {
      "inputs": [],
      "name": "owner",
      "outputs": [
        {
          "internalType": "address",
          "name": "",
          "type": "address"
        }
      ],
      "stateMutability": "view",
      "type": "function"
    },
    {
      "inputs": [],
      "name": "renounceOwnership",
      "outputs": [],
      "stateMutability": "nonpayable",
      "type": "function"
    },
    {
      "inputs": [
        {
          "internalType": "address",
          "name": "_eventContract",
          "type": "address"
        }
      ],
      "name": "setEventContract",
      "outputs": [],
      "stateMutability": "nonpayable",
      "type": "function"
    },
    {
      "inputs": [
        {
          "internalType": "address",
          "name": "newOwner",
          "type": "address"
        }
      ],
      "name": "transferOwnership",
      "outputs": [],
      "stateMutability": "nonpayable",
      "type": "function"
    }
  ],
  "bytecode": "0x608060405234801561001057600080fd5b5061002d61002261003260201b60201c565b61003a60201b60201c565b6100fe565b600033905090565b60008060009054906101000a900473ffffffffffffffffffffffffffffffffffffffff169050816000806101000a81548173ffffffffffffffffffffffffffffffffffffffff021916908373ffffffffffffffffffffffffffffffffffffffff1602179055508173ffffffffffffffffffffffffffffffffffffffff168173ffffffffffffffffffffffffffffffffffffffff167f8be0079c531659141344cd1fd0a4f28419497f9722a3daafe3b4186f6b6457e060405160405180910390a35050565b610d288061010d6000396000f3fe60806040526004361061004a5760003560e01c8063656f0f0f1461004f578063715018a6146100785780638da5cb5b1461008f578063c53430a6146100ba578063f2fde38b146100d6575b600080fd5b34801561005b57600080fd5b50610076600480360381019061007191906107cb565b6100ff565b005b34801561008457600080fd5b5061008d6101bf565b005b34801561009b57600080fd5b506100a4610247565b6040516100b19190610807565b60405180910390f35b6100d460048036038101906100cf9190610858565b610270565b005b3480156100e257600080fd5b506100fd60048036038101906100f891906107cb565b6105a4565b005b61010761069c565b73ffffffffffffffffffffffffffffffffffffffff16610125610247565b73ffffffffffffffffffffffffffffffffffffffff161461017b576040517f08c379a0000000000000000000000000000000000000000000000000000000008152600401610172906108e2565b60405180910390fd5b80600160006101000a81548173ffffffffffffffffffffffffffffffffffffffff021916908373ffffffffffffffffffffffffffffffffffffffff16021790555050565b6101c761069c565b73ffffffffffffffffffffffffffffffffffffffff166101e5610247565b73ffffffffffffffffffffffffffffffffffffffff161461023b576040517f08c379a0000000000000000000000000000000000000000000000000000000008152600401610232906108e2565b60405180910390fd5b61024560006106a4565b565b60008060009054906101000a900473ffffffffffffffffffffffffffffffffffffffff16905090565b6000600160009054906101000a900473ffffffffffffffffffffffffffffffffffffffff16905060008173ffffffffffffffffffffffffffffffffffffffff166373aa5974846040518263ffffffff1660e01b81526004016102d29190610911565b602060405180830381865afa1580156102ef573d6000803e3d6000fd5b505050506040513d601f19601f820116820180604052508101906103139190610941565b90508173ffffffffffffffffffffffffffffffffffffffff1663714cff566040518163ffffffff1660e01b8152600401602060405180830381865afa158015610360573d6000803e3d6000fd5b505050506040513d601f19601f820116820180604052508101906103849190610983565b83106103c5576040517f08c379a00000000000000000000000000000000000000000000000000000000081526004016103bc906109fc565b60405180910390fd5b8173ffffffffffffffffffffffffffffffffffffffff1663f9c6a054846040518263ffffffff1660e01b81526004016103fe9190610911565b602060405180830381865afa15801561041b573d6000803e3d6000fd5b505050506040513d601f19601f8201168201806040525081019061043f9190610983565b3414610480576040517f08c379a000000000000000000000000000000000000000000000000000000000815260040161047790610a68565b60405180910390fd5b8173ffffffffffffffffffffffffffffffffffffffff1663f242432a82338660016040518563ffffffff1660e01b81526004016104c09493929190610b59565b600060405180830381600087803b1580156104da57600080fd5b505af11580156104ee573d6000803e3d6000fd5b5050505060008173ffffffffffffffffffffffffffffffffffffffff163460405161051890610bdf565b60006040518083038185875af1925050503d8060008114610555576040519150601f19603f3d011682016040523d82523d6000602084013e61055a565b606091505b505090508061059e576040517f08c379a000000000000000000000000000000000000000000000000000000000815260040161059590610c40565b60405180910390fd5b50505050565b6105ac61069c565b73ffffffffffffffffffffffffffffffffffffffff166105ca610247565b73ffffffffffffffffffffffffffffffffffffffff1614610620576040517f08c379a0000000000000000000000000000000000000000000000000000000008152600401610617906108e2565b60405180910390fd5b600073ffffffffffffffffffffffffffffffffffffffff168173ffffffffffffffffffffffffffffffffffffffff161415610690576040517f08c379a000000000000000000000000000000000000000000000000000000000815260040161068790610cd2565b60405180910390fd5b610699816106a4565b50565b600033905090565b60008060009054906101000a900473ffffffffffffffffffffffffffffffffffffffff169050816000806101000a81548173ffffffffffffffffffffffffffffffffffffffff021916908373ffffffffffffffffffffffffffffffffffffffff1602179055508173ffffffffffffffffffffffffffffffffffffffff168173ffffffffffffffffffffffffffffffffffffffff167f8be0079c531659141344cd1fd0a4f28419497f9722a3daafe3b4186f6b6457e060405160405180910390a35050565b600080fd5b600073ffffffffffffffffffffffffffffffffffffffff82169050919050565b60006107988261076d565b9050919050565b6107a88161078d565b81146107b357600080fd5b50565b6000813590506107c58161079f565b92915050565b6000602082840312156107e1576107e0610768565b5b60006107ef848285016107b6565b91505092915050565b6108018161078d565b82525050565b600060208201905061081c60008301846107f8565b92915050565b6000819050919050565b61083581610822565b811461084057600080fd5b50565b6000813590506108528161082c565b92915050565b60006020828403121561086e5761086d610768565b5b600061087c84828501610843565b91505092915050565b600082825260208201905092915050565b7f4f776e61626c653a2063616c6c6572206973206e6f7420746865206f776e6572600082015250565b60006108cc602083610885565b91506108d782610896565b602082019050919050565b600060208201905081810360008301526108fb816108bf565b9050919050565b61090b81610822565b82525050565b60006020820190506109266000830184610902565b92915050565b60008151905061093b8161079f565b92915050565b60006020828403121561095757610956610768565b5b60006109658482850161092c565b91505092915050565b60008151905061097d8161082c565b92915050565b60006020828403121561099957610998610768565b5b60006109a78482850161096e565b91505092915050565b7f746f6b656e496420696e76616c69640000000000000000000000000000000000600082015250565b60006109e6600f83610885565b91506109f1826109b0565b602082019050919050565b60006020820190508181036000830152610a15816109d9565b9050919050565b7f696e76616c696420616d6f756e74000000000000000000000000000000000000600082015250565b6000610a52600e83610885565b9150610a5d82610a1c565b602082019050919050565b60006020820190508181036000830152610a8181610a45565b9050919050565b6000819050919050565b6000610aad610aa8610aa38461076d565b610a88565b61076d565b9050919050565b6000610abf82610a92565b9050919050565b6000610ad182610ab4565b9050919050565b610ae181610ac6565b82525050565b6000819050919050565b6000610b0c610b07610b0284610ae7565b610a88565b610822565b9050919050565b610b1c81610af1565b82525050565b600082825260208201905092915050565b50565b6000610b43600083610b22565b9150610b4e82610b33565b600082019050919050565b600060a082019050610b6e6000830187610ad8565b610b7b60208301866107f8565b610b886040830185610902565b610b956060830184610b13565b8181036080830152610ba681610b36565b905095945050505050565b600081905092915050565b6000610bc9600083610bb1565b9150610bd482610b33565b600082019050919050565b6000610bea82610bbc565b9150819050919050565b7f7061796d656e7420746f206f7267616e697a6572206661696c65640000000000600082015250565b6000610c2a601b83610885565b9150610c3582610bf4565b602082019050919050565b60006020820190508181036000830152610c5981610c1d565b9050919050565b7f4f776e61626c653a206e6577206f776e657220697320746865207a65726f206160008201527f6464726573730000000000000000000000000000000000000000000000000000602082015250565b6000610cbc602683610885565b9150610cc782610c60565b604082019050919050565b60006020820190508181036000830152610ceb81610caf565b905091905056fea26469706673582212203ed29f5fa8be0a007452c92d25eb6db79d61d3efa42bbb1e7a72a805d30a71e364736f6c634300080a0033",
  "linkReferences": {},
  "deployedLinkReferences": {}
}