{
  "_format": "hh-sol-artifact-1",
  "contractName": "EventNFT",
  "sourceName": "contracts/EventNFT.sol",
  "abi": [
    {
      "inputs": [
        {
          "internalType": "address",
          "name": "_eventsContract",
          "type": "address"
        }
      ],
      "stateMutability": "nonpayable",
      "type": "constructor"
    },
    {
      "anonymous": false,
      "inputs": [
        {
          "indexed": true,
          "internalType": "address",
          "name": "account",
          "type": "address"
        },
        {
          "indexed": true,
          "internalType": "address",
          "name": "operator",
          "type": "address"
        },
        {
          "indexed": false,
          "internalType": "bool",
          "name": "approved",
          "type": "bool"
        }
      ],
      "name": "ApprovalForAll",
      "type": "event"
    },
    {
      "anonymous": false,
      "inputs": [
        {
          "indexed": true,
          "internalType": "address",
          "name": "operator",
          "type": "address"
        },
        {
          "indexed": true,
          "internalType": "address",
          "name": "from",
          "type": "address"
        },
        {
          "indexed": true,
          "internalType": "address",
          "name": "to",
          "type": "address"
        },
        {
          "indexed": false,
          "internalType": "uint256[]",
          "name": "ids",
          "type": "uint256[]"
        },
        {
          "indexed": false,
          "internalType": "uint256[]",
          "name": "values",
          "type": "uint256[]"
        }
      ],
      "name": "TransferBatch",
      "type": "event"
    },
    {
      "anonymous": false,
      "inputs": [
        {
          "indexed": true,
          "internalType": "address",
          "name": "operator",
          "type": "address"
        },
        {
          "indexed": true,
          "internalType": "address",
          "name": "from",
          "type": "address"
        },
        {
          "indexed": true,
          "internalType": "address",
          "name": "to",
          "type": "address"
        },
        {
          "indexed": false,
          "internalType": "uint256",
          "name": "id",
          "type": "uint256"
        },
        {
          "indexed": false,
          "internalType": "uint256",
          "name": "value",
          "type": "uint256"
        }
      ],
      "name": "TransferSingle",
      "type": "event"
    },
    {
      "anonymous": false,
      "inputs": [
        {
          "indexed": false,
          "internalType": "string",
          "name": "value",
          "type": "string"
        },
        {
          "indexed": true,
          "internalType": "uint256",
          "name": "id",
          "type": "uint256"
        }
      ],
      "name": "URI",
      "type": "event"
    },
    {
      "inputs": [
        {
          "internalType": "address",
          "name": "account",
          "type": "address"
        },
        {
          "internalType": "uint256",
          "name": "id",
          "type": "uint256"
        }
      ],
      "name": "balanceOf",
      "outputs": [
        {
          "internalType": "uint256",
          "name": "",
          "type": "uint256"
        }
      ],
      "stateMutability": "view",
      "type": "function"
    },
    {
      "inputs": [
        {
          "internalType": "address[]",
          "name": "accounts",
          "type": "address[]"
        },
        {
          "internalType": "uint256[]",
          "name": "ids",
          "type": "uint256[]"
        }
      ],
      "name": "balanceOfBatch",
      "outputs": [
        {
          "internalType": "uint256[]",
          "name": "",
          "type": "uint256[]"
        }
      ],
      "stateMutability": "view",
      "type": "function"
    },
    {
      "inputs": [
        {
          "internalType": "uint256",
          "name": "price",
          "type": "uint256"
        },
        {
          "internalType": "uint256",
          "name": "amount",
          "type": "uint256"
        },
        {
          "internalType": "string",
          "name": "newUri",
          "type": "string"
        }
      ],
      "name": "createEvent",
      "outputs": [
        {
          "internalType": "uint256",
          "name": "",
          "type": "uint256"
        }
      ],
      "stateMutability": "nonpayable",
      "type": "function"
    },
    {
      "inputs": [],
      "name": "getEvents",
      "outputs": [
        {
          "components": [
            {
              "internalType": "uint256",
              "name": "id",
              "type": "uint256"
            },
            {
              "internalType": "uint256",
              "name": "price",
              "type": "uint256"
            },
            {
              "internalType": "address",
              "name": "organizer",
              "type": "address"
            },
            {
              "internalType": "uint256",
              "name": "ticketsAvailable",
              "type": "uint256"
            },
            {
              "internalType": "string",
              "name": "uri",
              "type": "string"
            }
          ],
          "internalType": "struct EventNFT.Event[]",
          "name": "",
          "type": "tuple[]"
        }
      ],
      "stateMutability": "view",
      "type": "function"
    },
    {
      "inputs": [],
      "name": "getMyEvents",
      "outputs": [
        {
          "components": [
            {
              "internalType": "uint256",
              "name": "id",
              "type": "uint256"
            },
            {
              "internalType": "uint256",
              "name": "price",
              "type": "uint256"
            },
            {
              "internalType": "address",
              "name": "organizer",
              "type": "address"
            },
            {
              "internalType": "uint256",
              "name": "ticketsAvailable",
              "type": "uint256"
            },
            {
              "internalType": "string",
              "name": "uri",
              "type": "string"
            }
          ],
          "internalType": "struct EventNFT.Event[]",
          "name": "",
          "type": "tuple[]"
        }
      ],
      "stateMutability": "view",
      "type": "function"
    },
    {
      "inputs": [
        {
          "internalType": "uint256",
          "name": "tokenId",
          "type": "uint256"
        }
      ],
      "name": "getURI",
      "outputs": [
        {
          "internalType": "string",
          "name": "",
          "type": "string"
        }
      ],
      "stateMutability": "view",
      "type": "function"
    },
    {
      "inputs": [
        {
          "internalType": "uint256",
          "name": "",
          "type": "uint256"
        }
      ],
      "name": "idToOrganizer",
      "outputs": [
        {
          "internalType": "address",
          "name": "",
          "type": "address"
        }
      ],
      "stateMutability": "view",
      "type": "function"
    },
    {
      "inputs": [
        {
          "internalType": "uint256",
          "name": "",
          "type": "uint256"
        }
      ],
      "name": "idToPrice",
      "outputs": [
        {
          "internalType": "uint256",
          "name": "",
          "type": "uint256"
        }
      ],
      "stateMutability": "view",
      "type": "function"
    },
    {
      "inputs": [
        {
          "internalType": "address",
          "name": "account",
          "type": "address"
        },
        {
          "internalType": "address",
          "name": "operator",
          "type": "address"
        }
      ],
      "name": "isApprovedForAll",
      "outputs": [
        {
          "internalType": "bool",
          "name": "",
          "type": "bool"
        }
      ],
      "stateMutability": "view",
      "type": "function"
    },
    {
      "inputs": [
        {
          "internalType": "address",
          "name": "from",
          "type": "address"
        },
        {
          "internalType": "address",
          "name": "to",
          "type": "address"
        },
        {
          "internalType": "uint256[]",
          "name": "ids",
          "type": "uint256[]"
        },
        {
          "internalType": "uint256[]",
          "name": "amounts",
          "type": "uint256[]"
        },
        {
          "internalType": "bytes",
          "name": "data",
          "type": "bytes"
        }
      ],
      "name": "safeBatchTransferFrom",
      "outputs": [],
      "stateMutability": "nonpayable",
      "type": "function"
    },
    {
      "inputs": [
        {
          "internalType": "address",
          "name": "from",
          "type": "address"
        },
        {
          "internalType": "address",
          "name": "to",
          "type": "address"
        },
        {
          "internalType": "uint256",
          "name": "id",
          "type": "uint256"
        },
        {
          "internalType": "uint256",
          "name": "amount",
          "type": "uint256"
        },
        {
          "internalType": "bytes",
          "name": "data",
          "type": "bytes"
        }
      ],
      "name": "safeTransferFrom",
      "outputs": [],
      "stateMutability": "nonpayable",
      "type": "function"
    },
    {
      "inputs": [
        {
          "internalType": "address",
          "name": "operator",
          "type": "address"
        },
        {
          "internalType": "bool",
          "name": "approved",
          "type": "bool"
        }
      ],
      "name": "setApprovalForAll",
      "outputs": [],
      "stateMutability": "nonpayable",
      "type": "function"
    },
    {
      "inputs": [
        {
          "internalType": "bytes4",
          "name": "interfaceId",
          "type": "bytes4"
        }
      ],
      "name": "supportsInterface",
      "outputs": [
        {
          "internalType": "bool",
          "name": "",
          "type": "bool"
        }
      ],
      "stateMutability": "view",
      "type": "function"
    },
    {
      "inputs": [],
      "name": "tokenIds",
      "outputs": [
        {
          "internalType": "uint256",
          "name": "_value",
          "type": "uint256"
        }
      ],
      "stateMutability": "view",
      "type": "function"
    },
    {
      "inputs": [
        {
          "internalType": "uint256",
          "name": "",
          "type": "uint256"
        }
      ],
      "name": "uri",
      "outputs": [
        {
          "internalType": "string",
          "name": "",
          "type": "string"
        }
      ],
      "stateMutability": "view",
      "type": "function"
    }
  ],
  "bytecode": "0x60806040523480156200001157600080fd5b50604051620035ce380380620035ce8339818101604052810190620000379190620001d7565b604051806020016040528060008152506200005881620000a160201b60201c565b5080600560006101000a81548173ffffffffffffffffffffffffffffffffffffffff021916908373ffffffffffffffffffffffffffffffffffffffff160217905550506200026e565b8060029080519060200190620000b9929190620000bd565b5050565b828054620000cb9062000238565b90600052602060002090601f016020900481019282620000ef57600085556200013b565b82601f106200010a57805160ff19168380011785556200013b565b828001600101855582156200013b579182015b828111156200013a5782518255916020019190600101906200011d565b5b5090506200014a91906200014e565b5090565b5b80821115620001695760008160009055506001016200014f565b5090565b600080fd5b600073ffffffffffffffffffffffffffffffffffffffff82169050919050565b60006200019f8262000172565b9050919050565b620001b18162000192565b8114620001bd57600080fd5b50565b600081519050620001d181620001a6565b92915050565b600060208284031215620001f057620001ef6200016d565b5b60006200020084828501620001c0565b91505092915050565b7f4e487b7100000000000000000000000000000000000000000000000000000000600052602260045260246000fd5b600060028204905060018216806200025157607f821691505b6020821081141562000268576200026762000209565b5b50919050565b613350806200027e6000396000f3fe608060405234801561001057600080fd5b50600436106100f45760003560e01c8063404aa8f911610097578063a22cb46511610066578063a22cb465146102bf578063e985e9c5146102db578063f242432a1461030b578063f9c6a05414610327576100f4565b8063404aa8f9146102235780634e1273f414610241578063714cff561461027157806373aa59741461028f576100f4565b80631aa347dc116100d35780631aa347dc14610189578063294e0d56146101b95780632eb2c2d6146101e95780633548124b14610205576100f4565b8062fdd58e146100f957806301ffc9a7146101295780630e89341c14610159575b600080fd5b610113600480360381019061010e9190611dd4565b610357565b6040516101209190611e23565b60405180910390f35b610143600480360381019061013e9190611e96565b610420565b6040516101509190611ede565b60405180910390f35b610173600480360381019061016e9190611ef9565b610502565b6040516101809190611fbf565b60405180910390f35b6101a3600480360381019061019e9190611ef9565b610596565b6040516101b09190611fbf565b60405180910390f35b6101d360048036038101906101ce9190612116565b61063b565b6040516101e09190611e23565b60405180910390f35b61020360048036038101906101fe91906122ee565b61071b565b005b61020d6107bc565b60405161021a919061255d565b60405180910390f35b61022b6109ff565b604051610238919061255d565b60405180910390f35b61025b60048036038101906102569190612642565b610bd9565b6040516102689190612769565b60405180910390f35b610279610cf2565b6040516102869190611e23565b60405180910390f35b6102a960048036038101906102a49190611ef9565b610cfe565b6040516102b6919061279a565b60405180910390f35b6102d960048036038101906102d491906127e1565b610d31565b005b6102f560048036038101906102f09190612821565b610d47565b6040516103029190611ede565b60405180910390f35b61032560048036038101906103209190612861565b610ddb565b005b610341600480360381019061033c9190611ef9565b610e7c565b60405161034e9190611e23565b60405180910390f35b60008073ffffffffffffffffffffffffffffffffffffffff168373ffffffffffffffffffffffffffffffffffffffff1614156103c8576040517f08c379a00000000000000000000000000000000000000000000000000000000081526004016103bf9061296a565b60405180910390fd5b60008083815260200190815260200160002060008473ffffffffffffffffffffffffffffffffffffffff1673ffffffffffffffffffffffffffffffffffffffff16815260200190815260200160002054905092915050565b60007fd9b67a26000000000000000000000000000000000000000000000000000000007bffffffffffffffffffffffffffffffffffffffffffffffffffffffff1916827bffffffffffffffffffffffffffffffffffffffffffffffffffffffff191614806104eb57507f0e89341c000000000000000000000000000000000000000000000000000000007bffffffffffffffffffffffffffffffffffffffffffffffffffffffff1916827bffffffffffffffffffffffffffffffffffffffffffffffffffffffff1916145b806104fb57506104fa82610e94565b5b9050919050565b606060028054610511906129b9565b80601f016020809104026020016040519081016040528092919081815260200182805461053d906129b9565b801561058a5780601f1061055f5761010080835404028352916020019161058a565b820191906000526020600020905b81548152906001019060200180831161056d57829003601f168201915b50505050509050919050565b60606004600083815260200190815260200160002080546105b6906129b9565b80601f01602080910402602001604051908101604052809291908181526020018280546105e2906129b9565b801561062f5780601f106106045761010080835404028352916020019161062f565b820191906000526020600020905b81548152906001019060200180831161061257829003601f168201915b50505050509050919050565b6000806106486003610efe565b905061066533828660405180602001604052806000815250610f0c565b84600660008381526020019081526020016000208190555061068781846110a2565b6106b4600560009054906101000a900473ffffffffffffffffffffffffffffffffffffffff166001610d31565b336007600083815260200190815260200160002060006101000a81548173ffffffffffffffffffffffffffffffffffffffff021916908373ffffffffffffffffffffffffffffffffffffffff16021790555061071060036110ce565b809150509392505050565b6107236110e4565b73ffffffffffffffffffffffffffffffffffffffff168573ffffffffffffffffffffffffffffffffffffffff1614806107695750610768856107636110e4565b610d47565b5b6107a8576040517f08c379a000000000000000000000000000000000000000000000000000000000815260040161079f90612a5d565b60405180910390fd5b6107b585858585856110ec565b5050505050565b606060006107ca6003610efe565b90506000805b8281101561080c5760006107e43383610357565b11156107f95781806107f590612aac565b9250505b808061080490612aac565b9150506107d0565b5060008167ffffffffffffffff81111561082957610828611feb565b5b60405190808252806020026020018201604052801561086257816020015b61084f611c44565b8152602001906001900390816108475790505b509050600080600090505b848110156109f45760006108813383610357565b11156109e15760006007600083815260200190815260200160002060009054906101000a900473ffffffffffffffffffffffffffffffffffffffff1690506040518060a00160405280838152602001600660008581526020019081526020016000205481526020018273ffffffffffffffffffffffffffffffffffffffff16815260200161090f8385610357565b8152602001600460008581526020019081526020016000208054610932906129b9565b80601f016020809104026020016040519081016040528092919081815260200182805461095e906129b9565b80156109ab5780601f10610980576101008083540402835291602001916109ab565b820191906000526020600020905b81548152906001019060200180831161098e57829003601f168201915b50505050508152508484815181106109c6576109c5612af5565b5b602002602001018190525082806109dc90612aac565b935050505b80806109ec90612aac565b91505061086d565b508194505050505090565b60606000610a0d6003610efe565b905060008167ffffffffffffffff811115610a2b57610a2a611feb565b5b604051908082528060200260200182016040528015610a6457816020015b610a51611c44565b815260200190600190039081610a495790505b50905060005b82811015610bd05760006007600083815260200190815260200160002060009054906101000a900473ffffffffffffffffffffffffffffffffffffffff1690506040518060a00160405280838152602001600660008581526020019081526020016000205481526020018273ffffffffffffffffffffffffffffffffffffffff168152602001610afa8385610357565b8152602001600460008581526020019081526020016000208054610b1d906129b9565b80601f0160208091040260200160405190810160405280929190818152602001828054610b49906129b9565b8015610b965780601f10610b6b57610100808354040283529160200191610b96565b820191906000526020600020905b815481529060010190602001808311610b7957829003601f168201915b5050505050815250838381518110610bb157610bb0612af5565b5b6020026020010181905250508080610bc890612aac565b915050610a6a565b50809250505090565b60608151835114610c1f576040517f08c379a0000000000000000000000000000000000000000000000000000000008152600401610c1690612b96565b60405180910390fd5b6000835167ffffffffffffffff811115610c3c57610c3b611feb565b5b604051908082528060200260200182016040528015610c6a5781602001602082028036833780820191505090505b50905060005b8451811015610ce757610cb7858281518110610c8f57610c8e612af5565b5b6020026020010151858381518110610caa57610ca9612af5565b5b6020026020010151610357565b828281518110610cca57610cc9612af5565b5b60200260200101818152505080610ce090612aac565b9050610c70565b508091505092915050565b60038060000154905081565b60076020528060005260406000206000915054906101000a900473ffffffffffffffffffffffffffffffffffffffff1681565b610d43610d3c6110e4565b8383611400565b5050565b6000600160008473ffffffffffffffffffffffffffffffffffffffff1673ffffffffffffffffffffffffffffffffffffffff16815260200190815260200160002060008373ffffffffffffffffffffffffffffffffffffffff1673ffffffffffffffffffffffffffffffffffffffff16815260200190815260200160002060009054906101000a900460ff16905092915050565b610de36110e4565b73ffffffffffffffffffffffffffffffffffffffff168573ffffffffffffffffffffffffffffffffffffffff161480610e295750610e2885610e236110e4565b610d47565b5b610e68576040517f08c379a0000000000000000000000000000000000000000000000000000000008152600401610e5f90612c28565b60405180910390fd5b610e75858585858561156d565b5050505050565b60066020528060005260406000206000915090505481565b60007f01ffc9a7000000000000000000000000000000000000000000000000000000007bffffffffffffffffffffffffffffffffffffffffffffffffffffffff1916827bffffffffffffffffffffffffffffffffffffffffffffffffffffffff1916149050919050565b600081600001549050919050565b600073ffffffffffffffffffffffffffffffffffffffff168473ffffffffffffffffffffffffffffffffffffffff161415610f7c576040517f08c379a0000000000000000000000000000000000000000000000000000000008152600401610f7390612cba565b60405180910390fd5b6000610f866110e4565b9050610fa781600087610f98886117ef565b610fa1886117ef565b87611869565b8260008086815260200190815260200160002060008773ffffffffffffffffffffffffffffffffffffffff1673ffffffffffffffffffffffffffffffffffffffff16815260200190815260200160002060008282546110069190612cda565b925050819055508473ffffffffffffffffffffffffffffffffffffffff16600073ffffffffffffffffffffffffffffffffffffffff168273ffffffffffffffffffffffffffffffffffffffff167fc3d58168c5ae7397731d063d5bbf3d657854427343f4c083240f7aacaa2d0f628787604051611084929190612d30565b60405180910390a461109b81600087878787611871565b5050505050565b806004600084815260200190815260200160002090805190602001906110c9929190611c89565b505050565b6001816000016000828254019250508190555050565b600033905090565b8151835114611130576040517f08c379a000000000000000000000000000000000000000000000000000000000815260040161112790612dcb565b60405180910390fd5b600073ffffffffffffffffffffffffffffffffffffffff168473ffffffffffffffffffffffffffffffffffffffff1614156111a0576040517f08c379a000000000000000000000000000000000000000000000000000000000815260040161119790612e5d565b60405180910390fd5b60006111aa6110e4565b90506111ba818787878787611869565b60005b845181101561136b5760008582815181106111db576111da612af5565b5b6020026020010151905060008583815181106111fa576111f9612af5565b5b60200260200101519050600080600084815260200190815260200160002060008b73ffffffffffffffffffffffffffffffffffffffff1673ffffffffffffffffffffffffffffffffffffffff1681526020019081526020016000205490508181101561129b576040517f08c379a000000000000000000000000000000000000000000000000000000000815260040161129290612eef565b60405180910390fd5b81810360008085815260200190815260200160002060008c73ffffffffffffffffffffffffffffffffffffffff1673ffffffffffffffffffffffffffffffffffffffff168152602001908152602001600020819055508160008085815260200190815260200160002060008b73ffffffffffffffffffffffffffffffffffffffff1673ffffffffffffffffffffffffffffffffffffffff16815260200190815260200160002060008282546113509190612cda565b925050819055505050508061136490612aac565b90506111bd565b508473ffffffffffffffffffffffffffffffffffffffff168673ffffffffffffffffffffffffffffffffffffffff168273ffffffffffffffffffffffffffffffffffffffff167f4a39dc06d4c0dbc64b70af90fd698a233a518aa5d07e595d983b8c0526c8f7fb87876040516113e2929190612f0f565b60405180910390a46113f8818787878787611a49565b505050505050565b8173ffffffffffffffffffffffffffffffffffffffff168373ffffffffffffffffffffffffffffffffffffffff16141561146f576040517f08c379a000000000000000000000000000000000000000000000000000000000815260040161146690612fb8565b60405180910390fd5b80600160008573ffffffffffffffffffffffffffffffffffffffff1673ffffffffffffffffffffffffffffffffffffffff16815260200190815260200160002060008473ffffffffffffffffffffffffffffffffffffffff1673ffffffffffffffffffffffffffffffffffffffff16815260200190815260200160002060006101000a81548160ff0219169083151502179055508173ffffffffffffffffffffffffffffffffffffffff168373ffffffffffffffffffffffffffffffffffffffff167f17307eab39ab6107e8899845ad3d59bd9653f200f220920489ca2b5937696c31836040516115609190611ede565b60405180910390a3505050565b600073ffffffffffffffffffffffffffffffffffffffff168473ffffffffffffffffffffffffffffffffffffffff1614156115dd576040517f08c379a00000000000000000000000000000000000000000000000000000000081526004016115d490612e5d565b60405180910390fd5b60006115e76110e4565b90506116078187876115f8886117ef565b611601886117ef565b87611869565b600080600086815260200190815260200160002060008873ffffffffffffffffffffffffffffffffffffffff1673ffffffffffffffffffffffffffffffffffffffff1681526020019081526020016000205490508381101561169e576040517f08c379a000000000000000000000000000000000000000000000000000000000815260040161169590612eef565b60405180910390fd5b83810360008087815260200190815260200160002060008973ffffffffffffffffffffffffffffffffffffffff1673ffffffffffffffffffffffffffffffffffffffff168152602001908152602001600020819055508360008087815260200190815260200160002060008873ffffffffffffffffffffffffffffffffffffffff1673ffffffffffffffffffffffffffffffffffffffff16815260200190815260200160002060008282546117539190612cda565b925050819055508573ffffffffffffffffffffffffffffffffffffffff168773ffffffffffffffffffffffffffffffffffffffff168373ffffffffffffffffffffffffffffffffffffffff167fc3d58168c5ae7397731d063d5bbf3d657854427343f4c083240f7aacaa2d0f6288886040516117d0929190612d30565b60405180910390a46117e6828888888888611871565b50505050505050565b60606000600167ffffffffffffffff81111561180e5761180d611feb565b5b60405190808252806020026020018201604052801561183c5781602001602082028036833780820191505090505b509050828160008151811061185457611853612af5565b5b60200260200101818152505080915050919050565b505050505050565b6118908473ffffffffffffffffffffffffffffffffffffffff16611c21565b15611a41578373ffffffffffffffffffffffffffffffffffffffff1663f23a6e6187878686866040518663ffffffff1660e01b81526004016118d695949392919061302d565b6020604051808303816000875af192505050801561191257506040513d601f19601f8201168201806040525081019061190f919061309c565b60015b6119b85761191e6130d6565b806308c379a0141561197b57506119336130f8565b8061193e575061197d565b806040517f08c379a00000000000000000000000000000000000000000000000000000000081526004016119729190611fbf565b60405180910390fd5b505b6040517f08c379a00000000000000000000000000000000000000000000000000000000081526004016119af90613200565b60405180910390fd5b63f23a6e6160e01b7bffffffffffffffffffffffffffffffffffffffffffffffffffffffff1916817bffffffffffffffffffffffffffffffffffffffffffffffffffffffff191614611a3f576040517f08c379a0000000000000000000000000000000000000000000000000000000008152600401611a3690613292565b60405180910390fd5b505b505050505050565b611a688473ffffffffffffffffffffffffffffffffffffffff16611c21565b15611c19578373ffffffffffffffffffffffffffffffffffffffff1663bc197c8187878686866040518663ffffffff1660e01b8152600401611aae9594939291906132b2565b6020604051808303816000875af1925050508015611aea57506040513d601f19601f82011682018060405250810190611ae7919061309c565b60015b611b9057611af66130d6565b806308c379a01415611b535750611b0b6130f8565b80611b165750611b55565b806040517f08c379a0000000000000000000000000000000000000000000000000000000008152600401611b4a9190611fbf565b60405180910390fd5b505b6040517f08c379a0000000000000000000000000000000000000000000000000000000008152600401611b8790613200565b60405180910390fd5b63bc197c8160e01b7bffffffffffffffffffffffffffffffffffffffffffffffffffffffff1916817bffffffffffffffffffffffffffffffffffffffffffffffffffffffff191614611c17576040517f08c379a0000000000000000000000000000000000000000000000000000000008152600401611c0e90613292565b60405180910390fd5b505b505050505050565b6000808273ffffffffffffffffffffffffffffffffffffffff163b119050919050565b6040518060a001604052806000815260200160008152602001600073ffffffffffffffffffffffffffffffffffffffff16815260200160008152602001606081525090565b828054611c95906129b9565b90600052602060002090601f016020900481019282611cb75760008555611cfe565b82601f10611cd057805160ff1916838001178555611cfe565b82800160010185558215611cfe579182015b82811115611cfd578251825591602001919060010190611ce2565b5b509050611d0b9190611d0f565b5090565b5b80821115611d28576000816000905550600101611d10565b5090565b6000604051905090565b600080fd5b600080fd5b600073ffffffffffffffffffffffffffffffffffffffff82169050919050565b6000611d6b82611d40565b9050919050565b611d7b81611d60565b8114611d8657600080fd5b50565b600081359050611d9881611d72565b92915050565b6000819050919050565b611db181611d9e565b8114611dbc57600080fd5b50565b600081359050611dce81611da8565b92915050565b60008060408385031215611deb57611dea611d36565b5b6000611df985828601611d89565b9250506020611e0a85828601611dbf565b9150509250929050565b611e1d81611d9e565b82525050565b6000602082019050611e386000830184611e14565b92915050565b60007fffffffff0000000000000000000000000000000000000000000000000000000082169050919050565b611e7381611e3e565b8114611e7e57600080fd5b50565b600081359050611e9081611e6a565b92915050565b600060208284031215611eac57611eab611d36565b5b6000611eba84828501611e81565b91505092915050565b60008115159050919050565b611ed881611ec3565b82525050565b6000602082019050611ef36000830184611ecf565b92915050565b600060208284031215611f0f57611f0e611d36565b5b6000611f1d84828501611dbf565b91505092915050565b600081519050919050565b600082825260208201905092915050565b60005b83811015611f60578082015181840152602081019050611f45565b83811115611f6f576000848401525b50505050565b6000601f19601f8301169050919050565b6000611f9182611f26565b611f9b8185611f31565b9350611fab818560208601611f42565b611fb481611f75565b840191505092915050565b60006020820190508181036000830152611fd98184611f86565b905092915050565b600080fd5b600080fd5b7f4e487b7100000000000000000000000000000000000000000000000000000000600052604160045260246000fd5b61202382611f75565b810181811067ffffffffffffffff8211171561204257612041611feb565b5b80604052505050565b6000612055611d2c565b9050612061828261201a565b919050565b600067ffffffffffffffff82111561208157612080611feb565b5b61208a82611f75565b9050602081019050919050565b82818337600083830152505050565b60006120b96120b484612066565b61204b565b9050828152602081018484840111156120d5576120d4611fe6565b5b6120e0848285612097565b509392505050565b600082601f8301126120fd576120fc611fe1565b5b813561210d8482602086016120a6565b91505092915050565b60008060006060848603121561212f5761212e611d36565b5b600061213d86828701611dbf565b935050602061214e86828701611dbf565b925050604084013567ffffffffffffffff81111561216f5761216e611d3b565b5b61217b868287016120e8565b9150509250925092565b600067ffffffffffffffff8211156121a05761219f611feb565b5b602082029050602081019050919050565b600080fd5b60006121c96121c484612185565b61204b565b905080838252602082019050602084028301858111156121ec576121eb6121b1565b5b835b8181101561221557806122018882611dbf565b8452602084019350506020810190506121ee565b5050509392505050565b600082601f83011261223457612233611fe1565b5b81356122448482602086016121b6565b91505092915050565b600067ffffffffffffffff82111561226857612267611feb565b5b61227182611f75565b9050602081019050919050565b600061229161228c8461224d565b61204b565b9050828152602081018484840111156122ad576122ac611fe6565b5b6122b8848285612097565b509392505050565b600082601f8301126122d5576122d4611fe1565b5b81356122e584826020860161227e565b91505092915050565b600080600080600060a0868803121561230a57612309611d36565b5b600061231888828901611d89565b955050602061232988828901611d89565b945050604086013567ffffffffffffffff81111561234a57612349611d3b565b5b6123568882890161221f565b935050606086013567ffffffffffffffff81111561237757612376611d3b565b5b6123838882890161221f565b925050608086013567ffffffffffffffff8111156123a4576123a3611d3b565b5b6123b0888289016122c0565b9150509295509295909350565b600081519050919050565b600082825260208201905092915050565b6000819050602082019050919050565b6123f281611d9e565b82525050565b61240181611d60565b82525050565b600082825260208201905092915050565b600061242382611f26565b61242d8185612407565b935061243d818560208601611f42565b61244681611f75565b840191505092915050565b600060a08301600083015161246960008601826123e9565b50602083015161247c60208601826123e9565b50604083015161248f60408601826123f8565b5060608301516124a260608601826123e9565b50608083015184820360808601526124ba8282612418565b9150508091505092915050565b60006124d38383612451565b905092915050565b6000602082019050919050565b60006124f3826123bd565b6124fd81856123c8565b93508360208202850161250f856123d9565b8060005b8581101561254b578484038952815161252c85826124c7565b9450612537836124db565b925060208a01995050600181019050612513565b50829750879550505050505092915050565b6000602082019050818103600083015261257781846124e8565b905092915050565b600067ffffffffffffffff82111561259a57612599611feb565b5b602082029050602081019050919050565b60006125be6125b98461257f565b61204b565b905080838252602082019050602084028301858111156125e1576125e06121b1565b5b835b8181101561260a57806125f68882611d89565b8452602084019350506020810190506125e3565b5050509392505050565b600082601f83011261262957612628611fe1565b5b81356126398482602086016125ab565b91505092915050565b6000806040838503121561265957612658611d36565b5b600083013567ffffffffffffffff81111561267757612676611d3b565b5b61268385828601612614565b925050602083013567ffffffffffffffff8111156126a4576126a3611d3b565b5b6126b08582860161221f565b9150509250929050565b600081519050919050565b600082825260208201905092915050565b6000819050602082019050919050565b60006126f283836123e9565b60208301905092915050565b6000602082019050919050565b6000612716826126ba565b61272081856126c5565b935061272b836126d6565b8060005b8381101561275c57815161274388826126e6565b975061274e836126fe565b92505060018101905061272f565b5085935050505092915050565b60006020820190508181036000830152612783818461270b565b905092915050565b61279481611d60565b82525050565b60006020820190506127af600083018461278b565b92915050565b6127be81611ec3565b81146127c957600080fd5b50565b6000813590506127db816127b5565b92915050565b600080604083850312156127f8576127f7611d36565b5b600061280685828601611d89565b9250506020612817858286016127cc565b9150509250929050565b6000806040838503121561283857612837611d36565b5b600061284685828601611d89565b925050602061285785828601611d89565b9150509250929050565b600080600080600060a0868803121561287d5761287c611d36565b5b600061288b88828901611d89565b955050602061289c88828901611d89565b94505060406128ad88828901611dbf565b93505060606128be88828901611dbf565b925050608086013567ffffffffffffffff8111156128df576128de611d3b565b5b6128eb888289016122c0565b9150509295509295909350565b7f455243313135353a2062616c616e636520717565727920666f7220746865207a60008201527f65726f2061646472657373000000000000000000000000000000000000000000602082015250565b6000612954602b83611f31565b915061295f826128f8565b604082019050919050565b6000602082019050818103600083015261298381612947565b9050919050565b7f4e487b7100000000000000000000000000000000000000000000000000000000600052602260045260246000fd5b600060028204905060018216806129d157607f821691505b602082108114156129e5576129e461298a565b5b50919050565b7f455243313135353a207472616e736665722063616c6c6572206973206e6f742060008201527f6f776e6572206e6f7220617070726f7665640000000000000000000000000000602082015250565b6000612a47603283611f31565b9150612a52826129eb565b604082019050919050565b60006020820190508181036000830152612a7681612a3a565b9050919050565b7f4e487b7100000000000000000000000000000000000000000000000000000000600052601160045260246000fd5b6000612ab782611d9e565b91507fffffffffffffffffffffffffffffffffffffffffffffffffffffffffffffffff821415612aea57612ae9612a7d565b5b600182019050919050565b7f4e487b7100000000000000000000000000000000000000000000000000000000600052603260045260246000fd5b7f455243313135353a206163636f756e747320616e6420696473206c656e67746860008201527f206d69736d617463680000000000000000000000000000000000000000000000602082015250565b6000612b80602983611f31565b9150612b8b82612b24565b604082019050919050565b60006020820190508181036000830152612baf81612b73565b9050919050565b7f455243313135353a2063616c6c6572206973206e6f74206f776e6572206e6f7260008201527f20617070726f7665640000000000000000000000000000000000000000000000602082015250565b6000612c12602983611f31565b9150612c1d82612bb6565b604082019050919050565b60006020820190508181036000830152612c4181612c05565b9050919050565b7f455243313135353a206d696e7420746f20746865207a65726f2061646472657360008201527f7300000000000000000000000000000000000000000000000000000000000000602082015250565b6000612ca4602183611f31565b9150612caf82612c48565b604082019050919050565b60006020820190508181036000830152612cd381612c97565b9050919050565b6000612ce582611d9e565b9150612cf083611d9e565b9250827fffffffffffffffffffffffffffffffffffffffffffffffffffffffffffffffff03821115612d2557612d24612a7d565b5b828201905092915050565b6000604082019050612d456000830185611e14565b612d526020830184611e14565b9392505050565b7f455243313135353a2069647320616e6420616d6f756e7473206c656e6774682060008201527f6d69736d61746368000000000000000000000000000000000000000000000000602082015250565b6000612db5602883611f31565b9150612dc082612d59565b604082019050919050565b60006020820190508181036000830152612de481612da8565b9050919050565b7f455243313135353a207472616e7366657220746f20746865207a65726f20616460008201527f6472657373000000000000000000000000000000000000000000000000000000602082015250565b6000612e47602583611f31565b9150612e5282612deb565b604082019050919050565b60006020820190508181036000830152612e7681612e3a565b9050919050565b7f455243313135353a20696e73756666696369656e742062616c616e636520666f60008201527f72207472616e7366657200000000000000000000000000000000000000000000602082015250565b6000612ed9602a83611f31565b9150612ee482612e7d565b604082019050919050565b60006020820190508181036000830152612f0881612ecc565b9050919050565b60006040820190508181036000830152612f29818561270b565b90508181036020830152612f3d818461270b565b90509392505050565b7f455243313135353a2073657474696e6720617070726f76616c2073746174757360008201527f20666f722073656c660000000000000000000000000000000000000000000000602082015250565b6000612fa2602983611f31565b9150612fad82612f46565b604082019050919050565b60006020820190508181036000830152612fd181612f95565b9050919050565b600081519050919050565b600082825260208201905092915050565b6000612fff82612fd8565b6130098185612fe3565b9350613019818560208601611f42565b61302281611f75565b840191505092915050565b600060a082019050613042600083018861278b565b61304f602083018761278b565b61305c6040830186611e14565b6130696060830185611e14565b818103608083015261307b8184612ff4565b90509695505050505050565b60008151905061309681611e6a565b92915050565b6000602082840312156130b2576130b1611d36565b5b60006130c084828501613087565b91505092915050565b60008160e01c9050919050565b600060033d11156130f55760046000803e6130f26000516130c9565b90505b90565b600060443d10156131085761318b565b613110611d2c565b60043d036004823e80513d602482011167ffffffffffffffff8211171561313857505061318b565b808201805167ffffffffffffffff811115613156575050505061318b565b80602083010160043d03850181111561317357505050505061318b565b6131828260200185018661201a565b82955050505050505b90565b7f455243313135353a207472616e7366657220746f206e6f6e204552433131353560008201527f526563656976657220696d706c656d656e746572000000000000000000000000602082015250565b60006131ea603483611f31565b91506131f58261318e565b604082019050919050565b60006020820190508181036000830152613219816131dd565b9050919050565b7f455243313135353a204552433131353552656365697665722072656a6563746560008201527f6420746f6b656e73000000000000000000000000000000000000000000000000602082015250565b600061327c602883611f31565b915061328782613220565b604082019050919050565b600060208201905081810360008301526132ab8161326f565b9050919050565b600060a0820190506132c7600083018861278b565b6132d4602083018761278b565b81810360408301526132e6818661270b565b905081810360608301526132fa818561270b565b9050818103608083015261330e8184612ff4565b9050969550505050505056fea26469706673582212204c0df7c259076fc66a770dc6e425053a4e006b6cac47dda9f330488fdf9fbb3664736f6c634300080a0033",
  "linkReferences": {},
  "deployedLinkReferences": {}
}