{
  "_format": "hh-sol-artifact-1",
  "contractName": "EventNFT",
  "sourceName": "contracts/EventNFT.sol",
  "abi": [
    {
      "inputs": [
        {
          "internalType": "address",
          "name": "_eventsContract",
          "type": "address"
        }
      ],
      "stateMutability": "nonpayable",
      "type": "constructor"
    },
    {
      "anonymous": false,
      "inputs": [
        {
          "indexed": true,
          "internalType": "address",
          "name": "account",
          "type": "address"
        },
        {
          "indexed": true,
          "internalType": "address",
          "name": "operator",
          "type": "address"
        },
        {
          "indexed": false,
          "internalType": "bool",
          "name": "approved",
          "type": "bool"
        }
      ],
      "name": "ApprovalForAll",
      "type": "event"
    },
    {
      "anonymous": false,
      "inputs": [
        {
          "indexed": false,
          "internalType": "uint256",
          "name": "id",
          "type": "uint256"
        },
        {
          "indexed": false,
          "internalType": "uint256",
          "name": "price",
          "type": "uint256"
        },
        {
          "indexed": false,
          "internalType": "address",
          "name": "organizer",
          "type": "address"
        },
        {
          "indexed": false,
          "internalType": "uint256",
          "name": "ticketsAvailable",
          "type": "uint256"
        },
        {
          "indexed": false,
          "internalType": "string",
          "name": "uri",
          "type": "string"
        }
      ],
      "name": "EventCreated",
      "type": "event"
    },
    {
      "anonymous": false,
      "inputs": [
        {
          "indexed": true,
          "internalType": "address",
          "name": "operator",
          "type": "address"
        },
        {
          "indexed": true,
          "internalType": "address",
          "name": "from",
          "type": "address"
        },
        {
          "indexed": true,
          "internalType": "address",
          "name": "to",
          "type": "address"
        },
        {
          "indexed": false,
          "internalType": "uint256[]",
          "name": "ids",
          "type": "uint256[]"
        },
        {
          "indexed": false,
          "internalType": "uint256[]",
          "name": "values",
          "type": "uint256[]"
        }
      ],
      "name": "TransferBatch",
      "type": "event"
    },
    {
      "anonymous": false,
      "inputs": [
        {
          "indexed": true,
          "internalType": "address",
          "name": "operator",
          "type": "address"
        },
        {
          "indexed": true,
          "internalType": "address",
          "name": "from",
          "type": "address"
        },
        {
          "indexed": true,
          "internalType": "address",
          "name": "to",
          "type": "address"
        },
        {
          "indexed": false,
          "internalType": "uint256",
          "name": "id",
          "type": "uint256"
        },
        {
          "indexed": false,
          "internalType": "uint256",
          "name": "value",
          "type": "uint256"
        }
      ],
      "name": "TransferSingle",
      "type": "event"
    },
    {
      "anonymous": false,
      "inputs": [
        {
          "indexed": false,
          "internalType": "string",
          "name": "value",
          "type": "string"
        },
        {
          "indexed": true,
          "internalType": "uint256",
          "name": "id",
          "type": "uint256"
        }
      ],
      "name": "URI",
      "type": "event"
    },
    {
      "inputs": [
        {
          "internalType": "address",
          "name": "account",
          "type": "address"
        },
        {
          "internalType": "uint256",
          "name": "id",
          "type": "uint256"
        }
      ],
      "name": "balanceOf",
      "outputs": [
        {
          "internalType": "uint256",
          "name": "",
          "type": "uint256"
        }
      ],
      "stateMutability": "view",
      "type": "function"
    },
    {
      "inputs": [
        {
          "internalType": "address[]",
          "name": "accounts",
          "type": "address[]"
        },
        {
          "internalType": "uint256[]",
          "name": "ids",
          "type": "uint256[]"
        }
      ],
      "name": "balanceOfBatch",
      "outputs": [
        {
          "internalType": "uint256[]",
          "name": "",
          "type": "uint256[]"
        }
      ],
      "stateMutability": "view",
      "type": "function"
    },
    {
      "inputs": [
        {
          "internalType": "uint256",
          "name": "price",
          "type": "uint256"
        },
        {
          "internalType": "uint256",
          "name": "amount",
          "type": "uint256"
        },
        {
          "internalType": "string",
          "name": "newUri",
          "type": "string"
        }
      ],
      "name": "createEvent",
      "outputs": [
        {
          "internalType": "uint256",
          "name": "",
          "type": "uint256"
        }
      ],
      "stateMutability": "nonpayable",
      "type": "function"
    },
    {
      "inputs": [],
      "name": "getEvents",
      "outputs": [
        {
          "components": [
            {
              "internalType": "uint256",
              "name": "id",
              "type": "uint256"
            },
            {
              "internalType": "uint256",
              "name": "price",
              "type": "uint256"
            },
            {
              "internalType": "address",
              "name": "organizer",
              "type": "address"
            },
            {
              "internalType": "uint256",
              "name": "ticketsAvailable",
              "type": "uint256"
            },
            {
              "internalType": "string",
              "name": "uri",
              "type": "string"
            }
          ],
          "internalType": "struct EventNFT.Event[]",
          "name": "",
          "type": "tuple[]"
        }
      ],
      "stateMutability": "view",
      "type": "function"
    },
    {
      "inputs": [],
      "name": "getMyEvents",
      "outputs": [
        {
          "components": [
            {
              "internalType": "uint256",
              "name": "id",
              "type": "uint256"
            },
            {
              "internalType": "uint256",
              "name": "price",
              "type": "uint256"
            },
            {
              "internalType": "address",
              "name": "organizer",
              "type": "address"
            },
            {
              "internalType": "uint256",
              "name": "ticketsAvailable",
              "type": "uint256"
            },
            {
              "internalType": "string",
              "name": "uri",
              "type": "string"
            }
          ],
          "internalType": "struct EventNFT.Event[]",
          "name": "",
          "type": "tuple[]"
        }
      ],
      "stateMutability": "view",
      "type": "function"
    },
    {
      "inputs": [
        {
          "internalType": "uint256",
          "name": "tokenId",
          "type": "uint256"
        }
      ],
      "name": "getURI",
      "outputs": [
        {
          "internalType": "string",
          "name": "",
          "type": "string"
        }
      ],
      "stateMutability": "view",
      "type": "function"
    },
    {
      "inputs": [
        {
          "internalType": "uint256",
          "name": "",
          "type": "uint256"
        }
      ],
      "name": "idToOrganizer",
      "outputs": [
        {
          "internalType": "address",
          "name": "",
          "type": "address"
        }
      ],
      "stateMutability": "view",
      "type": "function"
    },
    {
      "inputs": [
        {
          "internalType": "uint256",
          "name": "",
          "type": "uint256"
        }
      ],
      "name": "idToPrice",
      "outputs": [
        {
          "internalType": "uint256",
          "name": "",
          "type": "uint256"
        }
      ],
      "stateMutability": "view",
      "type": "function"
    },
    {
      "inputs": [
        {
          "internalType": "address",
          "name": "account",
          "type": "address"
        },
        {
          "internalType": "address",
          "name": "operator",
          "type": "address"
        }
      ],
      "name": "isApprovedForAll",
      "outputs": [
        {
          "internalType": "bool",
          "name": "",
          "type": "bool"
        }
      ],
      "stateMutability": "view",
      "type": "function"
    },
    {
      "inputs": [
        {
          "internalType": "address",
          "name": "from",
          "type": "address"
        },
        {
          "internalType": "address",
          "name": "to",
          "type": "address"
        },
        {
          "internalType": "uint256[]",
          "name": "ids",
          "type": "uint256[]"
        },
        {
          "internalType": "uint256[]",
          "name": "amounts",
          "type": "uint256[]"
        },
        {
          "internalType": "bytes",
          "name": "data",
          "type": "bytes"
        }
      ],
      "name": "safeBatchTransferFrom",
      "outputs": [],
      "stateMutability": "nonpayable",
      "type": "function"
    },
    {
      "inputs": [
        {
          "internalType": "address",
          "name": "from",
          "type": "address"
        },
        {
          "internalType": "address",
          "name": "to",
          "type": "address"
        },
        {
          "internalType": "uint256",
          "name": "id",
          "type": "uint256"
        },
        {
          "internalType": "uint256",
          "name": "amount",
          "type": "uint256"
        },
        {
          "internalType": "bytes",
          "name": "data",
          "type": "bytes"
        }
      ],
      "name": "safeTransferFrom",
      "outputs": [],
      "stateMutability": "nonpayable",
      "type": "function"
    },
    {
      "inputs": [
        {
          "internalType": "address",
          "name": "operator",
          "type": "address"
        },
        {
          "internalType": "bool",
          "name": "approved",
          "type": "bool"
        }
      ],
      "name": "setApprovalForAll",
      "outputs": [],
      "stateMutability": "nonpayable",
      "type": "function"
    },
    {
      "inputs": [
        {
          "internalType": "bytes4",
          "name": "interfaceId",
          "type": "bytes4"
        }
      ],
      "name": "supportsInterface",
      "outputs": [
        {
          "internalType": "bool",
          "name": "",
          "type": "bool"
        }
      ],
      "stateMutability": "view",
      "type": "function"
    },
    {
      "inputs": [],
      "name": "tokenIds",
      "outputs": [
        {
          "internalType": "uint256",
          "name": "_value",
          "type": "uint256"
        }
      ],
      "stateMutability": "view",
      "type": "function"
    },
    {
      "inputs": [
        {
          "internalType": "uint256",
          "name": "",
          "type": "uint256"
        }
      ],
      "name": "uri",
      "outputs": [
        {
          "internalType": "string",
          "name": "",
          "type": "string"
        }
      ],
      "stateMutability": "view",
      "type": "function"
    }
  ],
  "bytecode": "0x60806040523480156200001157600080fd5b5060405162003667380380620036678339818101604052810190620000379190620001d7565b604051806020016040528060008152506200005881620000a160201b60201c565b5080600560006101000a81548173ffffffffffffffffffffffffffffffffffffffff021916908373ffffffffffffffffffffffffffffffffffffffff160217905550506200026e565b8060029080519060200190620000b9929190620000bd565b5050565b828054620000cb9062000238565b90600052602060002090601f016020900481019282620000ef57600085556200013b565b82601f106200010a57805160ff19168380011785556200013b565b828001600101855582156200013b579182015b828111156200013a5782518255916020019190600101906200011d565b5b5090506200014a91906200014e565b5090565b5b80821115620001695760008160009055506001016200014f565b5090565b600080fd5b600073ffffffffffffffffffffffffffffffffffffffff82169050919050565b60006200019f8262000172565b9050919050565b620001b18162000192565b8114620001bd57600080fd5b50565b600081519050620001d181620001a6565b92915050565b600060208284031215620001f057620001ef6200016d565b5b60006200020084828501620001c0565b91505092915050565b7f4e487b7100000000000000000000000000000000000000000000000000000000600052602260045260246000fd5b600060028204905060018216806200025157607f821691505b6020821081141562000268576200026762000209565b5b50919050565b6133e9806200027e6000396000f3fe608060405234801561001057600080fd5b50600436106100f45760003560e01c8063404aa8f911610097578063a22cb46511610066578063a22cb465146102bf578063e985e9c5146102db578063f242432a1461030b578063f9c6a05414610327576100f4565b8063404aa8f9146102235780634e1273f414610241578063714cff561461027157806373aa59741461028f576100f4565b80631aa347dc116100d35780631aa347dc14610189578063294e0d56146101b95780632eb2c2d6146101e95780633548124b14610205576100f4565b8062fdd58e146100f957806301ffc9a7146101295780630e89341c14610159575b600080fd5b610113600480360381019061010e9190611e13565b610357565b6040516101209190611e62565b60405180910390f35b610143600480360381019061013e9190611ed5565b610420565b6040516101509190611f1d565b60405180910390f35b610173600480360381019061016e9190611f38565b610502565b6040516101809190611ffe565b60405180910390f35b6101a3600480360381019061019e9190611f38565b610596565b6040516101b09190611ffe565b60405180910390f35b6101d360048036038101906101ce9190612155565b61063b565b6040516101e09190611e62565b60405180910390f35b61020360048036038101906101fe919061232d565b61075a565b005b61020d6107fb565b60405161021a919061259c565b60405180910390f35b61022b610a3e565b604051610238919061259c565b60405180910390f35b61025b60048036038101906102569190612681565b610c18565b60405161026891906127a8565b60405180910390f35b610279610d31565b6040516102869190611e62565b60405180910390f35b6102a960048036038101906102a49190611f38565b610d3d565b6040516102b691906127d9565b60405180910390f35b6102d960048036038101906102d49190612820565b610d70565b005b6102f560048036038101906102f09190612860565b610d86565b6040516103029190611f1d565b60405180910390f35b610325600480360381019061032091906128a0565b610e1a565b005b610341600480360381019061033c9190611f38565b610ebb565b60405161034e9190611e62565b60405180910390f35b60008073ffffffffffffffffffffffffffffffffffffffff168373ffffffffffffffffffffffffffffffffffffffff1614156103c8576040517f08c379a00000000000000000000000000000000000000000000000000000000081526004016103bf906129a9565b60405180910390fd5b60008083815260200190815260200160002060008473ffffffffffffffffffffffffffffffffffffffff1673ffffffffffffffffffffffffffffffffffffffff16815260200190815260200160002054905092915050565b60007fd9b67a26000000000000000000000000000000000000000000000000000000007bffffffffffffffffffffffffffffffffffffffffffffffffffffffff1916827bffffffffffffffffffffffffffffffffffffffffffffffffffffffff191614806104eb57507f0e89341c000000000000000000000000000000000000000000000000000000007bffffffffffffffffffffffffffffffffffffffffffffffffffffffff1916827bffffffffffffffffffffffffffffffffffffffffffffffffffffffff1916145b806104fb57506104fa82610ed3565b5b9050919050565b606060028054610511906129f8565b80601f016020809104026020016040519081016040528092919081815260200182805461053d906129f8565b801561058a5780601f1061055f5761010080835404028352916020019161058a565b820191906000526020600020905b81548152906001019060200180831161056d57829003601f168201915b50505050509050919050565b60606004600083815260200190815260200160002080546105b6906129f8565b80601f01602080910402602001604051908101604052809291908181526020018280546105e2906129f8565b801561062f5780601f106106045761010080835404028352916020019161062f565b820191906000526020600020905b81548152906001019060200180831161061257829003601f168201915b50505050509050919050565b6000806106486003610f3d565b905061066533828660405180602001604052806000815250610f4b565b84600660008381526020019081526020016000208190555061068781846110e1565b6106b4600560009054906101000a900473ffffffffffffffffffffffffffffffffffffffff166001610d70565b336007600083815260200190815260200160002060006101000a81548173ffffffffffffffffffffffffffffffffffffffff021916908373ffffffffffffffffffffffffffffffffffffffff160217905550610710600361110d565b7fabf912d4cf05a2e5bbd921b38dbee6707a88792e381bb926a9d530c8085d51868186338787604051610747959493929190612a2a565b60405180910390a1809150509392505050565b610762611123565b73ffffffffffffffffffffffffffffffffffffffff168573ffffffffffffffffffffffffffffffffffffffff1614806107a857506107a7856107a2611123565b610d86565b5b6107e7576040517f08c379a00000000000000000000000000000000000000000000000000000000081526004016107de90612af6565b60405180910390fd5b6107f4858585858561112b565b5050505050565b606060006108096003610f3d565b90506000805b8281101561084b5760006108233383610357565b111561083857818061083490612b45565b9250505b808061084390612b45565b91505061080f565b5060008167ffffffffffffffff8111156108685761086761202a565b5b6040519080825280602002602001820160405280156108a157816020015b61088e611c83565b8152602001906001900390816108865790505b509050600080600090505b84811015610a335760006108c03383610357565b1115610a205760006007600083815260200190815260200160002060009054906101000a900473ffffffffffffffffffffffffffffffffffffffff1690506040518060a00160405280838152602001600660008581526020019081526020016000205481526020018273ffffffffffffffffffffffffffffffffffffffff16815260200161094e8385610357565b8152602001600460008581526020019081526020016000208054610971906129f8565b80601f016020809104026020016040519081016040528092919081815260200182805461099d906129f8565b80156109ea5780601f106109bf576101008083540402835291602001916109ea565b820191906000526020600020905b8154815290600101906020018083116109cd57829003601f168201915b5050505050815250848481518110610a0557610a04612b8e565b5b60200260200101819052508280610a1b90612b45565b935050505b8080610a2b90612b45565b9150506108ac565b508194505050505090565b60606000610a4c6003610f3d565b905060008167ffffffffffffffff811115610a6a57610a6961202a565b5b604051908082528060200260200182016040528015610aa357816020015b610a90611c83565b815260200190600190039081610a885790505b50905060005b82811015610c0f5760006007600083815260200190815260200160002060009054906101000a900473ffffffffffffffffffffffffffffffffffffffff1690506040518060a00160405280838152602001600660008581526020019081526020016000205481526020018273ffffffffffffffffffffffffffffffffffffffff168152602001610b398385610357565b8152602001600460008581526020019081526020016000208054610b5c906129f8565b80601f0160208091040260200160405190810160405280929190818152602001828054610b88906129f8565b8015610bd55780601f10610baa57610100808354040283529160200191610bd5565b820191906000526020600020905b815481529060010190602001808311610bb857829003601f168201915b5050505050815250838381518110610bf057610bef612b8e565b5b6020026020010181905250508080610c0790612b45565b915050610aa9565b50809250505090565b60608151835114610c5e576040517f08c379a0000000000000000000000000000000000000000000000000000000008152600401610c5590612c2f565b60405180910390fd5b6000835167ffffffffffffffff811115610c7b57610c7a61202a565b5b604051908082528060200260200182016040528015610ca95781602001602082028036833780820191505090505b50905060005b8451811015610d2657610cf6858281518110610cce57610ccd612b8e565b5b6020026020010151858381518110610ce957610ce8612b8e565b5b6020026020010151610357565b828281518110610d0957610d08612b8e565b5b60200260200101818152505080610d1f90612b45565b9050610caf565b508091505092915050565b60038060000154905081565b60076020528060005260406000206000915054906101000a900473ffffffffffffffffffffffffffffffffffffffff1681565b610d82610d7b611123565b838361143f565b5050565b6000600160008473ffffffffffffffffffffffffffffffffffffffff1673ffffffffffffffffffffffffffffffffffffffff16815260200190815260200160002060008373ffffffffffffffffffffffffffffffffffffffff1673ffffffffffffffffffffffffffffffffffffffff16815260200190815260200160002060009054906101000a900460ff16905092915050565b610e22611123565b73ffffffffffffffffffffffffffffffffffffffff168573ffffffffffffffffffffffffffffffffffffffff161480610e685750610e6785610e62611123565b610d86565b5b610ea7576040517f08c379a0000000000000000000000000000000000000000000000000000000008152600401610e9e90612cc1565b60405180910390fd5b610eb485858585856115ac565b5050505050565b60066020528060005260406000206000915090505481565b60007f01ffc9a7000000000000000000000000000000000000000000000000000000007bffffffffffffffffffffffffffffffffffffffffffffffffffffffff1916827bffffffffffffffffffffffffffffffffffffffffffffffffffffffff1916149050919050565b600081600001549050919050565b600073ffffffffffffffffffffffffffffffffffffffff168473ffffffffffffffffffffffffffffffffffffffff161415610fbb576040517f08c379a0000000000000000000000000000000000000000000000000000000008152600401610fb290612d53565b60405180910390fd5b6000610fc5611123565b9050610fe681600087610fd78861182e565b610fe08861182e565b876118a8565b8260008086815260200190815260200160002060008773ffffffffffffffffffffffffffffffffffffffff1673ffffffffffffffffffffffffffffffffffffffff16815260200190815260200160002060008282546110459190612d73565b925050819055508473ffffffffffffffffffffffffffffffffffffffff16600073ffffffffffffffffffffffffffffffffffffffff168273ffffffffffffffffffffffffffffffffffffffff167fc3d58168c5ae7397731d063d5bbf3d657854427343f4c083240f7aacaa2d0f6287876040516110c3929190612dc9565b60405180910390a46110da816000878787876118b0565b5050505050565b80600460008481526020019081526020016000209080519060200190611108929190611cc8565b505050565b6001816000016000828254019250508190555050565b600033905090565b815183511461116f576040517f08c379a000000000000000000000000000000000000000000000000000000000815260040161116690612e64565b60405180910390fd5b600073ffffffffffffffffffffffffffffffffffffffff168473ffffffffffffffffffffffffffffffffffffffff1614156111df576040517f08c379a00000000000000000000000000000000000000000000000000000000081526004016111d690612ef6565b60405180910390fd5b60006111e9611123565b90506111f98187878787876118a8565b60005b84518110156113aa57600085828151811061121a57611219612b8e565b5b60200260200101519050600085838151811061123957611238612b8e565b5b60200260200101519050600080600084815260200190815260200160002060008b73ffffffffffffffffffffffffffffffffffffffff1673ffffffffffffffffffffffffffffffffffffffff168152602001908152602001600020549050818110156112da576040517f08c379a00000000000000000000000000000000000000000000000000000000081526004016112d190612f88565b60405180910390fd5b81810360008085815260200190815260200160002060008c73ffffffffffffffffffffffffffffffffffffffff1673ffffffffffffffffffffffffffffffffffffffff168152602001908152602001600020819055508160008085815260200190815260200160002060008b73ffffffffffffffffffffffffffffffffffffffff1673ffffffffffffffffffffffffffffffffffffffff168152602001908152602001600020600082825461138f9190612d73565b92505081905550505050806113a390612b45565b90506111fc565b508473ffffffffffffffffffffffffffffffffffffffff168673ffffffffffffffffffffffffffffffffffffffff168273ffffffffffffffffffffffffffffffffffffffff167f4a39dc06d4c0dbc64b70af90fd698a233a518aa5d07e595d983b8c0526c8f7fb8787604051611421929190612fa8565b60405180910390a4611437818787878787611a88565b505050505050565b8173ffffffffffffffffffffffffffffffffffffffff168373ffffffffffffffffffffffffffffffffffffffff1614156114ae576040517f08c379a00000000000000000000000000000000000000000000000000000000081526004016114a590613051565b60405180910390fd5b80600160008573ffffffffffffffffffffffffffffffffffffffff1673ffffffffffffffffffffffffffffffffffffffff16815260200190815260200160002060008473ffffffffffffffffffffffffffffffffffffffff1673ffffffffffffffffffffffffffffffffffffffff16815260200190815260200160002060006101000a81548160ff0219169083151502179055508173ffffffffffffffffffffffffffffffffffffffff168373ffffffffffffffffffffffffffffffffffffffff167f17307eab39ab6107e8899845ad3d59bd9653f200f220920489ca2b5937696c318360405161159f9190611f1d565b60405180910390a3505050565b600073ffffffffffffffffffffffffffffffffffffffff168473ffffffffffffffffffffffffffffffffffffffff16141561161c576040517f08c379a000000000000000000000000000000000000000000000000000000000815260040161161390612ef6565b60405180910390fd5b6000611626611123565b90506116468187876116378861182e565b6116408861182e565b876118a8565b600080600086815260200190815260200160002060008873ffffffffffffffffffffffffffffffffffffffff1673ffffffffffffffffffffffffffffffffffffffff168152602001908152602001600020549050838110156116dd576040517f08c379a00000000000000000000000000000000000000000000000000000000081526004016116d490612f88565b60405180910390fd5b83810360008087815260200190815260200160002060008973ffffffffffffffffffffffffffffffffffffffff1673ffffffffffffffffffffffffffffffffffffffff168152602001908152602001600020819055508360008087815260200190815260200160002060008873ffffffffffffffffffffffffffffffffffffffff1673ffffffffffffffffffffffffffffffffffffffff16815260200190815260200160002060008282546117929190612d73565b925050819055508573ffffffffffffffffffffffffffffffffffffffff168773ffffffffffffffffffffffffffffffffffffffff168373ffffffffffffffffffffffffffffffffffffffff167fc3d58168c5ae7397731d063d5bbf3d657854427343f4c083240f7aacaa2d0f62888860405161180f929190612dc9565b60405180910390a46118258288888888886118b0565b50505050505050565b60606000600167ffffffffffffffff81111561184d5761184c61202a565b5b60405190808252806020026020018201604052801561187b5781602001602082028036833780820191505090505b509050828160008151811061189357611892612b8e565b5b60200260200101818152505080915050919050565b505050505050565b6118cf8473ffffffffffffffffffffffffffffffffffffffff16611c60565b15611a80578373ffffffffffffffffffffffffffffffffffffffff1663f23a6e6187878686866040518663ffffffff1660e01b81526004016119159594939291906130c6565b6020604051808303816000875af192505050801561195157506040513d601f19601f8201168201806040525081019061194e9190613135565b60015b6119f75761195d61316f565b806308c379a014156119ba5750611972613191565b8061197d57506119bc565b806040517f08c379a00000000000000000000000000000000000000000000000000000000081526004016119b19190611ffe565b60405180910390fd5b505b6040517f08c379a00000000000000000000000000000000000000000000000000000000081526004016119ee90613299565b60405180910390fd5b63f23a6e6160e01b7bffffffffffffffffffffffffffffffffffffffffffffffffffffffff1916817bffffffffffffffffffffffffffffffffffffffffffffffffffffffff191614611a7e576040517f08c379a0000000000000000000000000000000000000000000000000000000008152600401611a759061332b565b60405180910390fd5b505b505050505050565b611aa78473ffffffffffffffffffffffffffffffffffffffff16611c60565b15611c58578373ffffffffffffffffffffffffffffffffffffffff1663bc197c8187878686866040518663ffffffff1660e01b8152600401611aed95949392919061334b565b6020604051808303816000875af1925050508015611b2957506040513d601f19601f82011682018060405250810190611b269190613135565b60015b611bcf57611b3561316f565b806308c379a01415611b925750611b4a613191565b80611b555750611b94565b806040517f08c379a0000000000000000000000000000000000000000000000000000000008152600401611b899190611ffe565b60405180910390fd5b505b6040517f08c379a0000000000000000000000000000000000000000000000000000000008152600401611bc690613299565b60405180910390fd5b63bc197c8160e01b7bffffffffffffffffffffffffffffffffffffffffffffffffffffffff1916817bffffffffffffffffffffffffffffffffffffffffffffffffffffffff191614611c56576040517f08c379a0000000000000000000000000000000000000000000000000000000008152600401611c4d9061332b565b60405180910390fd5b505b505050505050565b6000808273ffffffffffffffffffffffffffffffffffffffff163b119050919050565b6040518060a001604052806000815260200160008152602001600073ffffffffffffffffffffffffffffffffffffffff16815260200160008152602001606081525090565b828054611cd4906129f8565b90600052602060002090601f016020900481019282611cf65760008555611d3d565b82601f10611d0f57805160ff1916838001178555611d3d565b82800160010185558215611d3d579182015b82811115611d3c578251825591602001919060010190611d21565b5b509050611d4a9190611d4e565b5090565b5b80821115611d67576000816000905550600101611d4f565b5090565b6000604051905090565b600080fd5b600080fd5b600073ffffffffffffffffffffffffffffffffffffffff82169050919050565b6000611daa82611d7f565b9050919050565b611dba81611d9f565b8114611dc557600080fd5b50565b600081359050611dd781611db1565b92915050565b6000819050919050565b611df081611ddd565b8114611dfb57600080fd5b50565b600081359050611e0d81611de7565b92915050565b60008060408385031215611e2a57611e29611d75565b5b6000611e3885828601611dc8565b9250506020611e4985828601611dfe565b9150509250929050565b611e5c81611ddd565b82525050565b6000602082019050611e776000830184611e53565b92915050565b60007fffffffff0000000000000000000000000000000000000000000000000000000082169050919050565b611eb281611e7d565b8114611ebd57600080fd5b50565b600081359050611ecf81611ea9565b92915050565b600060208284031215611eeb57611eea611d75565b5b6000611ef984828501611ec0565b91505092915050565b60008115159050919050565b611f1781611f02565b82525050565b6000602082019050611f326000830184611f0e565b92915050565b600060208284031215611f4e57611f4d611d75565b5b6000611f5c84828501611dfe565b91505092915050565b600081519050919050565b600082825260208201905092915050565b60005b83811015611f9f578082015181840152602081019050611f84565b83811115611fae576000848401525b50505050565b6000601f19601f8301169050919050565b6000611fd082611f65565b611fda8185611f70565b9350611fea818560208601611f81565b611ff381611fb4565b840191505092915050565b600060208201905081810360008301526120188184611fc5565b905092915050565b600080fd5b600080fd5b7f4e487b7100000000000000000000000000000000000000000000000000000000600052604160045260246000fd5b61206282611fb4565b810181811067ffffffffffffffff821117156120815761208061202a565b5b80604052505050565b6000612094611d6b565b90506120a08282612059565b919050565b600067ffffffffffffffff8211156120c0576120bf61202a565b5b6120c982611fb4565b9050602081019050919050565b82818337600083830152505050565b60006120f86120f3846120a5565b61208a565b90508281526020810184848401111561211457612113612025565b5b61211f8482856120d6565b509392505050565b600082601f83011261213c5761213b612020565b5b813561214c8482602086016120e5565b91505092915050565b60008060006060848603121561216e5761216d611d75565b5b600061217c86828701611dfe565b935050602061218d86828701611dfe565b925050604084013567ffffffffffffffff8111156121ae576121ad611d7a565b5b6121ba86828701612127565b9150509250925092565b600067ffffffffffffffff8211156121df576121de61202a565b5b602082029050602081019050919050565b600080fd5b6000612208612203846121c4565b61208a565b9050808382526020820190506020840283018581111561222b5761222a6121f0565b5b835b8181101561225457806122408882611dfe565b84526020840193505060208101905061222d565b5050509392505050565b600082601f83011261227357612272612020565b5b81356122838482602086016121f5565b91505092915050565b600067ffffffffffffffff8211156122a7576122a661202a565b5b6122b082611fb4565b9050602081019050919050565b60006122d06122cb8461228c565b61208a565b9050828152602081018484840111156122ec576122eb612025565b5b6122f78482856120d6565b509392505050565b600082601f83011261231457612313612020565b5b81356123248482602086016122bd565b91505092915050565b600080600080600060a0868803121561234957612348611d75565b5b600061235788828901611dc8565b955050602061236888828901611dc8565b945050604086013567ffffffffffffffff81111561238957612388611d7a565b5b6123958882890161225e565b935050606086013567ffffffffffffffff8111156123b6576123b5611d7a565b5b6123c28882890161225e565b925050608086013567ffffffffffffffff8111156123e3576123e2611d7a565b5b6123ef888289016122ff565b9150509295509295909350565b600081519050919050565b600082825260208201905092915050565b6000819050602082019050919050565b61243181611ddd565b82525050565b61244081611d9f565b82525050565b600082825260208201905092915050565b600061246282611f65565b61246c8185612446565b935061247c818560208601611f81565b61248581611fb4565b840191505092915050565b600060a0830160008301516124a86000860182612428565b5060208301516124bb6020860182612428565b5060408301516124ce6040860182612437565b5060608301516124e16060860182612428565b50608083015184820360808601526124f98282612457565b9150508091505092915050565b60006125128383612490565b905092915050565b6000602082019050919050565b6000612532826123fc565b61253c8185612407565b93508360208202850161254e85612418565b8060005b8581101561258a578484038952815161256b8582612506565b94506125768361251a565b925060208a01995050600181019050612552565b50829750879550505050505092915050565b600060208201905081810360008301526125b68184612527565b905092915050565b600067ffffffffffffffff8211156125d9576125d861202a565b5b602082029050602081019050919050565b60006125fd6125f8846125be565b61208a565b905080838252602082019050602084028301858111156126205761261f6121f0565b5b835b8181101561264957806126358882611dc8565b845260208401935050602081019050612622565b5050509392505050565b600082601f83011261266857612667612020565b5b81356126788482602086016125ea565b91505092915050565b6000806040838503121561269857612697611d75565b5b600083013567ffffffffffffffff8111156126b6576126b5611d7a565b5b6126c285828601612653565b925050602083013567ffffffffffffffff8111156126e3576126e2611d7a565b5b6126ef8582860161225e565b9150509250929050565b600081519050919050565b600082825260208201905092915050565b6000819050602082019050919050565b60006127318383612428565b60208301905092915050565b6000602082019050919050565b6000612755826126f9565b61275f8185612704565b935061276a83612715565b8060005b8381101561279b5781516127828882612725565b975061278d8361273d565b92505060018101905061276e565b5085935050505092915050565b600060208201905081810360008301526127c2818461274a565b905092915050565b6127d381611d9f565b82525050565b60006020820190506127ee60008301846127ca565b92915050565b6127fd81611f02565b811461280857600080fd5b50565b60008135905061281a816127f4565b92915050565b6000806040838503121561283757612836611d75565b5b600061284585828601611dc8565b92505060206128568582860161280b565b9150509250929050565b6000806040838503121561287757612876611d75565b5b600061288585828601611dc8565b925050602061289685828601611dc8565b9150509250929050565b600080600080600060a086880312156128bc576128bb611d75565b5b60006128ca88828901611dc8565b95505060206128db88828901611dc8565b94505060406128ec88828901611dfe565b93505060606128fd88828901611dfe565b925050608086013567ffffffffffffffff81111561291e5761291d611d7a565b5b61292a888289016122ff565b9150509295509295909350565b7f455243313135353a2062616c616e636520717565727920666f7220746865207a60008201527f65726f2061646472657373000000000000000000000000000000000000000000602082015250565b6000612993602b83611f70565b915061299e82612937565b604082019050919050565b600060208201905081810360008301526129c281612986565b9050919050565b7f4e487b7100000000000000000000000000000000000000000000000000000000600052602260045260246000fd5b60006002820490506001821680612a1057607f821691505b60208210811415612a2457612a236129c9565b5b50919050565b600060a082019050612a3f6000830188611e53565b612a4c6020830187611e53565b612a5960408301866127ca565b612a666060830185611e53565b8181036080830152612a788184611fc5565b90509695505050505050565b7f455243313135353a207472616e736665722063616c6c6572206973206e6f742060008201527f6f776e6572206e6f7220617070726f7665640000000000000000000000000000602082015250565b6000612ae0603283611f70565b9150612aeb82612a84565b604082019050919050565b60006020820190508181036000830152612b0f81612ad3565b9050919050565b7f4e487b7100000000000000000000000000000000000000000000000000000000600052601160045260246000fd5b6000612b5082611ddd565b91507fffffffffffffffffffffffffffffffffffffffffffffffffffffffffffffffff821415612b8357612b82612b16565b5b600182019050919050565b7f4e487b7100000000000000000000000000000000000000000000000000000000600052603260045260246000fd5b7f455243313135353a206163636f756e747320616e6420696473206c656e67746860008201527f206d69736d617463680000000000000000000000000000000000000000000000602082015250565b6000612c19602983611f70565b9150612c2482612bbd565b604082019050919050565b60006020820190508181036000830152612c4881612c0c565b9050919050565b7f455243313135353a2063616c6c6572206973206e6f74206f776e6572206e6f7260008201527f20617070726f7665640000000000000000000000000000000000000000000000602082015250565b6000612cab602983611f70565b9150612cb682612c4f565b604082019050919050565b60006020820190508181036000830152612cda81612c9e565b9050919050565b7f455243313135353a206d696e7420746f20746865207a65726f2061646472657360008201527f7300000000000000000000000000000000000000000000000000000000000000602082015250565b6000612d3d602183611f70565b9150612d4882612ce1565b604082019050919050565b60006020820190508181036000830152612d6c81612d30565b9050919050565b6000612d7e82611ddd565b9150612d8983611ddd565b9250827fffffffffffffffffffffffffffffffffffffffffffffffffffffffffffffffff03821115612dbe57612dbd612b16565b5b828201905092915050565b6000604082019050612dde6000830185611e53565b612deb6020830184611e53565b9392505050565b7f455243313135353a2069647320616e6420616d6f756e7473206c656e6774682060008201527f6d69736d61746368000000000000000000000000000000000000000000000000602082015250565b6000612e4e602883611f70565b9150612e5982612df2565b604082019050919050565b60006020820190508181036000830152612e7d81612e41565b9050919050565b7f455243313135353a207472616e7366657220746f20746865207a65726f20616460008201527f6472657373000000000000000000000000000000000000000000000000000000602082015250565b6000612ee0602583611f70565b9150612eeb82612e84565b604082019050919050565b60006020820190508181036000830152612f0f81612ed3565b9050919050565b7f455243313135353a20696e73756666696369656e742062616c616e636520666f60008201527f72207472616e7366657200000000000000000000000000000000000000000000602082015250565b6000612f72602a83611f70565b9150612f7d82612f16565b604082019050919050565b60006020820190508181036000830152612fa181612f65565b9050919050565b60006040820190508181036000830152612fc2818561274a565b90508181036020830152612fd6818461274a565b90509392505050565b7f455243313135353a2073657474696e6720617070726f76616c2073746174757360008201527f20666f722073656c660000000000000000000000000000000000000000000000602082015250565b600061303b602983611f70565b915061304682612fdf565b604082019050919050565b6000602082019050818103600083015261306a8161302e565b9050919050565b600081519050919050565b600082825260208201905092915050565b600061309882613071565b6130a2818561307c565b93506130b2818560208601611f81565b6130bb81611fb4565b840191505092915050565b600060a0820190506130db60008301886127ca565b6130e860208301876127ca565b6130f56040830186611e53565b6131026060830185611e53565b8181036080830152613114818461308d565b90509695505050505050565b60008151905061312f81611ea9565b92915050565b60006020828403121561314b5761314a611d75565b5b600061315984828501613120565b91505092915050565b60008160e01c9050919050565b600060033d111561318e5760046000803e61318b600051613162565b90505b90565b600060443d10156131a157613224565b6131a9611d6b565b60043d036004823e80513d602482011167ffffffffffffffff821117156131d1575050613224565b808201805167ffffffffffffffff8111156131ef5750505050613224565b80602083010160043d03850181111561320c575050505050613224565b61321b82602001850186612059565b82955050505050505b90565b7f455243313135353a207472616e7366657220746f206e6f6e204552433131353560008201527f526563656976657220696d706c656d656e746572000000000000000000000000602082015250565b6000613283603483611f70565b915061328e82613227565b604082019050919050565b600060208201905081810360008301526132b281613276565b9050919050565b7f455243313135353a204552433131353552656365697665722072656a6563746560008201527f6420746f6b656e73000000000000000000000000000000000000000000000000602082015250565b6000613315602883611f70565b9150613320826132b9565b604082019050919050565b6000602082019050818103600083015261334481613308565b9050919050565b600060a08201905061336060008301886127ca565b61336d60208301876127ca565b818103604083015261337f818661274a565b90508181036060830152613393818561274a565b905081810360808301526133a7818461308d565b9050969550505050505056fea26469706673582212203c94fe84184e7fe00b4eb5bb4705f1b64ca3a22d5a479965790b9458d3602cfa64736f6c634300080a0033",
  "linkReferences": {},
  "deployedLinkReferences": {}
}