{
  "_format": "hh-sol-artifact-1",
  "contractName": "Events",
  "sourceName": "contracts/Events.sol",
  "abi": [
    {
      "inputs": [],
      "stateMutability": "nonpayable",
      "type": "constructor"
    },
    {
      "anonymous": false,
      "inputs": [
        {
          "indexed": true,
          "internalType": "address",
          "name": "account",
          "type": "address"
        },
        {
          "indexed": true,
          "internalType": "address",
          "name": "operator",
          "type": "address"
        },
        {
          "indexed": false,
          "internalType": "bool",
          "name": "approved",
          "type": "bool"
        }
      ],
      "name": "ApprovalForAll",
      "type": "event"
    },
    {
      "anonymous": false,
      "inputs": [
        {
          "indexed": true,
          "internalType": "address",
          "name": "operator",
          "type": "address"
        },
        {
          "indexed": true,
          "internalType": "address",
          "name": "from",
          "type": "address"
        },
        {
          "indexed": true,
          "internalType": "address",
          "name": "to",
          "type": "address"
        },
        {
          "indexed": false,
          "internalType": "uint256[]",
          "name": "ids",
          "type": "uint256[]"
        },
        {
          "indexed": false,
          "internalType": "uint256[]",
          "name": "values",
          "type": "uint256[]"
        }
      ],
      "name": "TransferBatch",
      "type": "event"
    },
    {
      "anonymous": false,
      "inputs": [
        {
          "indexed": true,
          "internalType": "address",
          "name": "operator",
          "type": "address"
        },
        {
          "indexed": true,
          "internalType": "address",
          "name": "from",
          "type": "address"
        },
        {
          "indexed": true,
          "internalType": "address",
          "name": "to",
          "type": "address"
        },
        {
          "indexed": false,
          "internalType": "uint256",
          "name": "id",
          "type": "uint256"
        },
        {
          "indexed": false,
          "internalType": "uint256",
          "name": "value",
          "type": "uint256"
        }
      ],
      "name": "TransferSingle",
      "type": "event"
    },
    {
      "anonymous": false,
      "inputs": [
        {
          "indexed": false,
          "internalType": "string",
          "name": "value",
          "type": "string"
        },
        {
          "indexed": true,
          "internalType": "uint256",
          "name": "id",
          "type": "uint256"
        }
      ],
      "name": "URI",
      "type": "event"
    },
    {
      "inputs": [],
      "name": "MAX_UINT256",
      "outputs": [
        {
          "internalType": "uint256",
          "name": "",
          "type": "uint256"
        }
      ],
      "stateMutability": "view",
      "type": "function"
    },
    {
      "inputs": [
        {
          "internalType": "address",
          "name": "account",
          "type": "address"
        },
        {
          "internalType": "uint256",
          "name": "id",
          "type": "uint256"
        }
      ],
      "name": "balanceOf",
      "outputs": [
        {
          "internalType": "uint256",
          "name": "",
          "type": "uint256"
        }
      ],
      "stateMutability": "view",
      "type": "function"
    },
    {
      "inputs": [
        {
          "internalType": "address[]",
          "name": "accounts",
          "type": "address[]"
        },
        {
          "internalType": "uint256[]",
          "name": "ids",
          "type": "uint256[]"
        }
      ],
      "name": "balanceOfBatch",
      "outputs": [
        {
          "internalType": "uint256[]",
          "name": "",
          "type": "uint256[]"
        }
      ],
      "stateMutability": "view",
      "type": "function"
    },
    {
      "inputs": [
        {
          "internalType": "uint256",
          "name": "tokenId",
          "type": "uint256"
        }
      ],
      "name": "buyEventPass",
      "outputs": [],
      "stateMutability": "payable",
      "type": "function"
    },
    {
      "inputs": [
        {
          "internalType": "uint256",
          "name": "price",
          "type": "uint256"
        },
        {
          "internalType": "uint256",
          "name": "amount",
          "type": "uint256"
        },
        {
          "internalType": "string",
          "name": "newUri",
          "type": "string"
        }
      ],
      "name": "createEvent",
      "outputs": [
        {
          "internalType": "uint256",
          "name": "",
          "type": "uint256"
        }
      ],
      "stateMutability": "nonpayable",
      "type": "function"
    },
    {
      "inputs": [],
      "name": "getEvents",
      "outputs": [
        {
          "internalType": "string[]",
          "name": "",
          "type": "string[]"
        }
      ],
      "stateMutability": "view",
      "type": "function"
    },
    {
      "inputs": [
        {
          "internalType": "uint256",
          "name": "tokenId",
          "type": "uint256"
        }
      ],
      "name": "getURI",
      "outputs": [
        {
          "internalType": "string",
          "name": "",
          "type": "string"
        }
      ],
      "stateMutability": "view",
      "type": "function"
    },
    {
      "inputs": [
        {
          "internalType": "uint256",
          "name": "",
          "type": "uint256"
        }
      ],
      "name": "idToPrice",
      "outputs": [
        {
          "internalType": "uint256",
          "name": "",
          "type": "uint256"
        }
      ],
      "stateMutability": "view",
      "type": "function"
    },
    {
      "inputs": [
        {
          "internalType": "address",
          "name": "account",
          "type": "address"
        },
        {
          "internalType": "address",
          "name": "operator",
          "type": "address"
        }
      ],
      "name": "isApprovedForAll",
      "outputs": [
        {
          "internalType": "bool",
          "name": "",
          "type": "bool"
        }
      ],
      "stateMutability": "view",
      "type": "function"
    },
    {
      "inputs": [
        {
          "internalType": "address",
          "name": "from",
          "type": "address"
        },
        {
          "internalType": "address",
          "name": "to",
          "type": "address"
        },
        {
          "internalType": "uint256[]",
          "name": "ids",
          "type": "uint256[]"
        },
        {
          "internalType": "uint256[]",
          "name": "amounts",
          "type": "uint256[]"
        },
        {
          "internalType": "bytes",
          "name": "data",
          "type": "bytes"
        }
      ],
      "name": "safeBatchTransferFrom",
      "outputs": [],
      "stateMutability": "nonpayable",
      "type": "function"
    },
    {
      "inputs": [
        {
          "internalType": "address",
          "name": "from",
          "type": "address"
        },
        {
          "internalType": "address",
          "name": "to",
          "type": "address"
        },
        {
          "internalType": "uint256",
          "name": "id",
          "type": "uint256"
        },
        {
          "internalType": "uint256",
          "name": "amount",
          "type": "uint256"
        },
        {
          "internalType": "bytes",
          "name": "data",
          "type": "bytes"
        }
      ],
      "name": "safeTransferFrom",
      "outputs": [],
      "stateMutability": "nonpayable",
      "type": "function"
    },
    {
      "inputs": [
        {
          "internalType": "address",
          "name": "operator",
          "type": "address"
        },
        {
          "internalType": "bool",
          "name": "approved",
          "type": "bool"
        }
      ],
      "name": "setApprovalForAll",
      "outputs": [],
      "stateMutability": "nonpayable",
      "type": "function"
    },
    {
      "inputs": [
        {
          "internalType": "bytes4",
          "name": "interfaceId",
          "type": "bytes4"
        }
      ],
      "name": "supportsInterface",
      "outputs": [
        {
          "internalType": "bool",
          "name": "",
          "type": "bool"
        }
      ],
      "stateMutability": "view",
      "type": "function"
    },
    {
      "inputs": [],
      "name": "tokenIds",
      "outputs": [
        {
          "internalType": "uint256",
          "name": "_value",
          "type": "uint256"
        }
      ],
      "stateMutability": "view",
      "type": "function"
    },
    {
      "inputs": [
        {
          "internalType": "uint256",
          "name": "",
          "type": "uint256"
        }
      ],
      "name": "uri",
      "outputs": [
        {
          "internalType": "string",
          "name": "",
          "type": "string"
        }
      ],
      "stateMutability": "view",
      "type": "function"
    }
  ],
  "bytecode": "0x60806040523480156200001157600080fd5b506040518060200160405280600081525062000033816200003a60201b60201c565b506200016b565b80600290805190602001906200005292919062000056565b5050565b828054620000649062000135565b90600052602060002090601f016020900481019282620000885760008555620000d4565b82601f10620000a357805160ff1916838001178555620000d4565b82800160010185558215620000d4579182015b82811115620000d3578251825591602001919060010190620000b6565b5b509050620000e39190620000e7565b5090565b5b8082111562000102576000816000905550600101620000e8565b5090565b7f4e487b7100000000000000000000000000000000000000000000000000000000600052602260045260246000fd5b600060028204905060018216806200014e57607f821691505b6020821081141562000165576200016462000106565b5b50919050565b6131ed806200017b6000396000f3fe6080604052600436106100e75760003560e01c8063404aa8f91161008a578063c53430a611610059578063c53430a61461032d578063e985e9c514610349578063f242432a14610386578063f9c6a054146103af576100e7565b8063404aa8f9146102715780634e1273f41461029c578063714cff56146102d9578063a22cb46514610304576100e7565b80631aa347dc116100c65780631aa347dc146101a3578063294e0d56146101e05780632eb2c2d61461021d57806333a581d214610246576100e7565b8062fdd58e146100ec57806301ffc9a7146101295780630e89341c14610166575b600080fd5b3480156100f857600080fd5b50610113600480360381019061010e9190611c34565b6103ec565b6040516101209190611c83565b60405180910390f35b34801561013557600080fd5b50610150600480360381019061014b9190611cf6565b6104b5565b60405161015d9190611d3e565b60405180910390f35b34801561017257600080fd5b5061018d60048036038101906101889190611d59565b610597565b60405161019a9190611e1f565b60405180910390f35b3480156101af57600080fd5b506101ca60048036038101906101c59190611d59565b61062b565b6040516101d79190611e1f565b60405180910390f35b3480156101ec57600080fd5b5061020760048036038101906102029190611ea6565b6106d0565b6040516102149190611c83565b60405180910390f35b34801561022957600080fd5b50610244600480360381019061023f919061210d565b6107d4565b005b34801561025257600080fd5b5061025b610875565b6040516102689190611c83565b60405180910390f35b34801561027d57600080fd5b50610286610899565b60405161029391906122e8565b60405180910390f35b3480156102a857600080fd5b506102c360048036038101906102be91906123cd565b61094f565b6040516102d09190612503565b60405180910390f35b3480156102e557600080fd5b506102ee610a68565b6040516102fb9190611c83565b60405180910390f35b34801561031057600080fd5b5061032b60048036038101906103269190612551565b610a74565b005b61034760048036038101906103429190611d59565b610a8a565b005b34801561035557600080fd5b50610370600480360381019061036b9190612591565b610bec565b60405161037d9190611d3e565b60405180910390f35b34801561039257600080fd5b506103ad60048036038101906103a891906125d1565b610c80565b005b3480156103bb57600080fd5b506103d660048036038101906103d19190611d59565b610d21565b6040516103e39190611c83565b60405180910390f35b60008073ffffffffffffffffffffffffffffffffffffffff168373ffffffffffffffffffffffffffffffffffffffff16141561045d576040517f08c379a0000000000000000000000000000000000000000000000000000000008152600401610454906126da565b60405180910390fd5b60008083815260200190815260200160002060008473ffffffffffffffffffffffffffffffffffffffff1673ffffffffffffffffffffffffffffffffffffffff16815260200190815260200160002054905092915050565b60007fd9b67a26000000000000000000000000000000000000000000000000000000007bffffffffffffffffffffffffffffffffffffffffffffffffffffffff1916827bffffffffffffffffffffffffffffffffffffffffffffffffffffffff1916148061058057507f0e89341c000000000000000000000000000000000000000000000000000000007bffffffffffffffffffffffffffffffffffffffffffffffffffffffff1916827bffffffffffffffffffffffffffffffffffffffffffffffffffffffff1916145b80610590575061058f82610d39565b5b9050919050565b6060600280546105a690612729565b80601f01602080910402602001604051908101604052809291908181526020018280546105d290612729565b801561061f5780601f106105f45761010080835404028352916020019161061f565b820191906000526020600020905b81548152906001019060200180831161060257829003601f168201915b50505050509050919050565b606060056000838152602001908152602001600020805461064b90612729565b80601f016020809104026020016040519081016040528092919081815260200182805461067790612729565b80156106c45780601f10610699576101008083540402835291602001916106c4565b820191906000526020600020905b8154815290600101906020018083116106a757829003601f168201915b50505050509050919050565b60006106dc6003610da3565b60006106e86003610db9565b905061070533828760405180602001604052806000815250610dc7565b85600460008381526020019081526020016000208190555061076b8185858080601f016020809104026020016040519081016040528093929190818152602001838380828437600081840152601f19601f82011690508083019250505050505050610f5d565b610776306001610a74565b336006600083815260200190815260200160002060006101000a81548173ffffffffffffffffffffffffffffffffffffffff021916908373ffffffffffffffffffffffffffffffffffffffff16021790555080915050949350505050565b6107dc610f89565b73ffffffffffffffffffffffffffffffffffffffff168573ffffffffffffffffffffffffffffffffffffffff16148061082257506108218561081c610f89565b610bec565b5b610861576040517f08c379a0000000000000000000000000000000000000000000000000000000008152600401610858906127cd565b60405180910390fd5b61086e8585858585610f91565b5050505050565b7fffffffffffffffffffffffffffffffffffffffffffffffffffffffffffffffff81565b606060006108a76003610db9565b67ffffffffffffffff8111156108c0576108bf611f1a565b5b6040519080825280602002602001820160405280156108f357816020015b60608152602001906001900390816108de5790505b5090506000600190505b6109076003610db9565b8111610947576109168161062b565b828281518110610929576109286127ed565b5b6020026020010181905250808061093f9061284b565b9150506108fd565b508091505090565b60608151835114610995576040517f08c379a000000000000000000000000000000000000000000000000000000000815260040161098c90612906565b60405180910390fd5b6000835167ffffffffffffffff8111156109b2576109b1611f1a565b5b6040519080825280602002602001820160405280156109e05781602001602082028036833780820191505090505b50905060005b8451811015610a5d57610a2d858281518110610a0557610a046127ed565b5b6020026020010151858381518110610a2057610a1f6127ed565b5b60200260200101516103ec565b828281518110610a4057610a3f6127ed565b5b60200260200101818152505080610a569061284b565b90506109e6565b508091505092915050565b60038060000154905081565b610a86610a7f610f89565b83836112a5565b5050565b60046000828152602001908152602001600020543414610aa957600080fd5b60008111610aec576040517f08c379a0000000000000000000000000000000000000000000000000000000008152600401610ae390612972565b60405180910390fd5b610b3c6006600083815260200190815260200160002060009054906101000a900473ffffffffffffffffffffffffffffffffffffffff163383600160405180602001604052806000815250610c80565b60003073ffffffffffffffffffffffffffffffffffffffff1634604051610b62906129c3565b60006040518083038185875af1925050503d8060008114610b9f576040519150601f19603f3d011682016040523d82523d6000602084013e610ba4565b606091505b5050905080610be8576040517f08c379a0000000000000000000000000000000000000000000000000000000008152600401610bdf90612a24565b60405180910390fd5b5050565b6000600160008473ffffffffffffffffffffffffffffffffffffffff1673ffffffffffffffffffffffffffffffffffffffff16815260200190815260200160002060008373ffffffffffffffffffffffffffffffffffffffff1673ffffffffffffffffffffffffffffffffffffffff16815260200190815260200160002060009054906101000a900460ff16905092915050565b610c88610f89565b73ffffffffffffffffffffffffffffffffffffffff168573ffffffffffffffffffffffffffffffffffffffff161480610cce5750610ccd85610cc8610f89565b610bec565b5b610d0d576040517f08c379a0000000000000000000000000000000000000000000000000000000008152600401610d0490612ab6565b60405180910390fd5b610d1a8585858585611412565b5050505050565b60046020528060005260406000206000915090505481565b60007f01ffc9a7000000000000000000000000000000000000000000000000000000007bffffffffffffffffffffffffffffffffffffffffffffffffffffffff1916827bffffffffffffffffffffffffffffffffffffffffffffffffffffffff1916149050919050565b6001816000016000828254019250508190555050565b600081600001549050919050565b600073ffffffffffffffffffffffffffffffffffffffff168473ffffffffffffffffffffffffffffffffffffffff161415610e37576040517f08c379a0000000000000000000000000000000000000000000000000000000008152600401610e2e90612b48565b60405180910390fd5b6000610e41610f89565b9050610e6281600087610e5388611694565b610e5c88611694565b8761170e565b8260008086815260200190815260200160002060008773ffffffffffffffffffffffffffffffffffffffff1673ffffffffffffffffffffffffffffffffffffffff1681526020019081526020016000206000828254610ec19190612b68565b925050819055508473ffffffffffffffffffffffffffffffffffffffff16600073ffffffffffffffffffffffffffffffffffffffff168273ffffffffffffffffffffffffffffffffffffffff167fc3d58168c5ae7397731d063d5bbf3d657854427343f4c083240f7aacaa2d0f628787604051610f3f929190612bbe565b60405180910390a4610f5681600087878787611716565b5050505050565b80600560008481526020019081526020016000209080519060200190610f84929190611ae9565b505050565b600033905090565b8151835114610fd5576040517f08c379a0000000000000000000000000000000000000000000000000000000008152600401610fcc90612c59565b60405180910390fd5b600073ffffffffffffffffffffffffffffffffffffffff168473ffffffffffffffffffffffffffffffffffffffff161415611045576040517f08c379a000000000000000000000000000000000000000000000000000000000815260040161103c90612ceb565b60405180910390fd5b600061104f610f89565b905061105f81878787878761170e565b60005b84518110156112105760008582815181106110805761107f6127ed565b5b60200260200101519050600085838151811061109f5761109e6127ed565b5b60200260200101519050600080600084815260200190815260200160002060008b73ffffffffffffffffffffffffffffffffffffffff1673ffffffffffffffffffffffffffffffffffffffff16815260200190815260200160002054905081811015611140576040517f08c379a000000000000000000000000000000000000000000000000000000000815260040161113790612d7d565b60405180910390fd5b81810360008085815260200190815260200160002060008c73ffffffffffffffffffffffffffffffffffffffff1673ffffffffffffffffffffffffffffffffffffffff168152602001908152602001600020819055508160008085815260200190815260200160002060008b73ffffffffffffffffffffffffffffffffffffffff1673ffffffffffffffffffffffffffffffffffffffff16815260200190815260200160002060008282546111f59190612b68565b92505081905550505050806112099061284b565b9050611062565b508473ffffffffffffffffffffffffffffffffffffffff168673ffffffffffffffffffffffffffffffffffffffff168273ffffffffffffffffffffffffffffffffffffffff167f4a39dc06d4c0dbc64b70af90fd698a233a518aa5d07e595d983b8c0526c8f7fb8787604051611287929190612d9d565b60405180910390a461129d8187878787876118ee565b505050505050565b8173ffffffffffffffffffffffffffffffffffffffff168373ffffffffffffffffffffffffffffffffffffffff161415611314576040517f08c379a000000000000000000000000000000000000000000000000000000000815260040161130b90612e46565b60405180910390fd5b80600160008573ffffffffffffffffffffffffffffffffffffffff1673ffffffffffffffffffffffffffffffffffffffff16815260200190815260200160002060008473ffffffffffffffffffffffffffffffffffffffff1673ffffffffffffffffffffffffffffffffffffffff16815260200190815260200160002060006101000a81548160ff0219169083151502179055508173ffffffffffffffffffffffffffffffffffffffff168373ffffffffffffffffffffffffffffffffffffffff167f17307eab39ab6107e8899845ad3d59bd9653f200f220920489ca2b5937696c31836040516114059190611d3e565b60405180910390a3505050565b600073ffffffffffffffffffffffffffffffffffffffff168473ffffffffffffffffffffffffffffffffffffffff161415611482576040517f08c379a000000000000000000000000000000000000000000000000000000000815260040161147990612ceb565b60405180910390fd5b600061148c610f89565b90506114ac81878761149d88611694565b6114a688611694565b8761170e565b600080600086815260200190815260200160002060008873ffffffffffffffffffffffffffffffffffffffff1673ffffffffffffffffffffffffffffffffffffffff16815260200190815260200160002054905083811015611543576040517f08c379a000000000000000000000000000000000000000000000000000000000815260040161153a90612d7d565b60405180910390fd5b83810360008087815260200190815260200160002060008973ffffffffffffffffffffffffffffffffffffffff1673ffffffffffffffffffffffffffffffffffffffff168152602001908152602001600020819055508360008087815260200190815260200160002060008873ffffffffffffffffffffffffffffffffffffffff1673ffffffffffffffffffffffffffffffffffffffff16815260200190815260200160002060008282546115f89190612b68565b925050819055508573ffffffffffffffffffffffffffffffffffffffff168773ffffffffffffffffffffffffffffffffffffffff168373ffffffffffffffffffffffffffffffffffffffff167fc3d58168c5ae7397731d063d5bbf3d657854427343f4c083240f7aacaa2d0f628888604051611675929190612bbe565b60405180910390a461168b828888888888611716565b50505050505050565b60606000600167ffffffffffffffff8111156116b3576116b2611f1a565b5b6040519080825280602002602001820160405280156116e15781602001602082028036833780820191505090505b50905082816000815181106116f9576116f86127ed565b5b60200260200101818152505080915050919050565b505050505050565b6117358473ffffffffffffffffffffffffffffffffffffffff16611ac6565b156118e6578373ffffffffffffffffffffffffffffffffffffffff1663f23a6e6187878686866040518663ffffffff1660e01b815260040161177b959493929190612eca565b6020604051808303816000875af19250505080156117b757506040513d601f19601f820116820180604052508101906117b49190612f39565b60015b61185d576117c3612f73565b806308c379a0141561182057506117d8612f95565b806117e35750611822565b806040517f08c379a00000000000000000000000000000000000000000000000000000000081526004016118179190611e1f565b60405180910390fd5b505b6040517f08c379a00000000000000000000000000000000000000000000000000000000081526004016118549061309d565b60405180910390fd5b63f23a6e6160e01b7bffffffffffffffffffffffffffffffffffffffffffffffffffffffff1916817bffffffffffffffffffffffffffffffffffffffffffffffffffffffff1916146118e4576040517f08c379a00000000000000000000000000000000000000000000000000000000081526004016118db9061312f565b60405180910390fd5b505b505050505050565b61190d8473ffffffffffffffffffffffffffffffffffffffff16611ac6565b15611abe578373ffffffffffffffffffffffffffffffffffffffff1663bc197c8187878686866040518663ffffffff1660e01b815260040161195395949392919061314f565b6020604051808303816000875af192505050801561198f57506040513d601f19601f8201168201806040525081019061198c9190612f39565b60015b611a355761199b612f73565b806308c379a014156119f857506119b0612f95565b806119bb57506119fa565b806040517f08c379a00000000000000000000000000000000000000000000000000000000081526004016119ef9190611e1f565b60405180910390fd5b505b6040517f08c379a0000000000000000000000000000000000000000000000000000000008152600401611a2c9061309d565b60405180910390fd5b63bc197c8160e01b7bffffffffffffffffffffffffffffffffffffffffffffffffffffffff1916817bffffffffffffffffffffffffffffffffffffffffffffffffffffffff191614611abc576040517f08c379a0000000000000000000000000000000000000000000000000000000008152600401611ab39061312f565b60405180910390fd5b505b505050505050565b6000808273ffffffffffffffffffffffffffffffffffffffff163b119050919050565b828054611af590612729565b90600052602060002090601f016020900481019282611b175760008555611b5e565b82601f10611b3057805160ff1916838001178555611b5e565b82800160010185558215611b5e579182015b82811115611b5d578251825591602001919060010190611b42565b5b509050611b6b9190611b6f565b5090565b5b80821115611b88576000816000905550600101611b70565b5090565b6000604051905090565b600080fd5b600080fd5b600073ffffffffffffffffffffffffffffffffffffffff82169050919050565b6000611bcb82611ba0565b9050919050565b611bdb81611bc0565b8114611be657600080fd5b50565b600081359050611bf881611bd2565b92915050565b6000819050919050565b611c1181611bfe565b8114611c1c57600080fd5b50565b600081359050611c2e81611c08565b92915050565b60008060408385031215611c4b57611c4a611b96565b5b6000611c5985828601611be9565b9250506020611c6a85828601611c1f565b9150509250929050565b611c7d81611bfe565b82525050565b6000602082019050611c986000830184611c74565b92915050565b60007fffffffff0000000000000000000000000000000000000000000000000000000082169050919050565b611cd381611c9e565b8114611cde57600080fd5b50565b600081359050611cf081611cca565b92915050565b600060208284031215611d0c57611d0b611b96565b5b6000611d1a84828501611ce1565b91505092915050565b60008115159050919050565b611d3881611d23565b82525050565b6000602082019050611d536000830184611d2f565b92915050565b600060208284031215611d6f57611d6e611b96565b5b6000611d7d84828501611c1f565b91505092915050565b600081519050919050565b600082825260208201905092915050565b60005b83811015611dc0578082015181840152602081019050611da5565b83811115611dcf576000848401525b50505050565b6000601f19601f8301169050919050565b6000611df182611d86565b611dfb8185611d91565b9350611e0b818560208601611da2565b611e1481611dd5565b840191505092915050565b60006020820190508181036000830152611e398184611de6565b905092915050565b600080fd5b600080fd5b600080fd5b60008083601f840112611e6657611e65611e41565b5b8235905067ffffffffffffffff811115611e8357611e82611e46565b5b602083019150836001820283011115611e9f57611e9e611e4b565b5b9250929050565b60008060008060608587031215611ec057611ebf611b96565b5b6000611ece87828801611c1f565b9450506020611edf87828801611c1f565b935050604085013567ffffffffffffffff811115611f0057611eff611b9b565b5b611f0c87828801611e50565b925092505092959194509250565b7f4e487b7100000000000000000000000000000000000000000000000000000000600052604160045260246000fd5b611f5282611dd5565b810181811067ffffffffffffffff82111715611f7157611f70611f1a565b5b80604052505050565b6000611f84611b8c565b9050611f908282611f49565b919050565b600067ffffffffffffffff821115611fb057611faf611f1a565b5b602082029050602081019050919050565b6000611fd4611fcf84611f95565b611f7a565b90508083825260208201905060208402830185811115611ff757611ff6611e4b565b5b835b81811015612020578061200c8882611c1f565b845260208401935050602081019050611ff9565b5050509392505050565b600082601f83011261203f5761203e611e41565b5b813561204f848260208601611fc1565b91505092915050565b600080fd5b600067ffffffffffffffff82111561207857612077611f1a565b5b61208182611dd5565b9050602081019050919050565b82818337600083830152505050565b60006120b06120ab8461205d565b611f7a565b9050828152602081018484840111156120cc576120cb612058565b5b6120d784828561208e565b509392505050565b600082601f8301126120f4576120f3611e41565b5b813561210484826020860161209d565b91505092915050565b600080600080600060a0868803121561212957612128611b96565b5b600061213788828901611be9565b955050602061214888828901611be9565b945050604086013567ffffffffffffffff81111561216957612168611b9b565b5b6121758882890161202a565b935050606086013567ffffffffffffffff81111561219657612195611b9b565b5b6121a28882890161202a565b925050608086013567ffffffffffffffff8111156121c3576121c2611b9b565b5b6121cf888289016120df565b9150509295509295909350565b600081519050919050565b600082825260208201905092915050565b6000819050602082019050919050565b600082825260208201905092915050565b600061222482611d86565b61222e8185612208565b935061223e818560208601611da2565b61224781611dd5565b840191505092915050565b600061225e8383612219565b905092915050565b6000602082019050919050565b600061227e826121dc565b61228881856121e7565b93508360208202850161229a856121f8565b8060005b858110156122d657848403895281516122b78582612252565b94506122c283612266565b925060208a0199505060018101905061229e565b50829750879550505050505092915050565b600060208201905081810360008301526123028184612273565b905092915050565b600067ffffffffffffffff82111561232557612324611f1a565b5b602082029050602081019050919050565b60006123496123448461230a565b611f7a565b9050808382526020820190506020840283018581111561236c5761236b611e4b565b5b835b8181101561239557806123818882611be9565b84526020840193505060208101905061236e565b5050509392505050565b600082601f8301126123b4576123b3611e41565b5b81356123c4848260208601612336565b91505092915050565b600080604083850312156123e4576123e3611b96565b5b600083013567ffffffffffffffff81111561240257612401611b9b565b5b61240e8582860161239f565b925050602083013567ffffffffffffffff81111561242f5761242e611b9b565b5b61243b8582860161202a565b9150509250929050565b600081519050919050565b600082825260208201905092915050565b6000819050602082019050919050565b61247a81611bfe565b82525050565b600061248c8383612471565b60208301905092915050565b6000602082019050919050565b60006124b082612445565b6124ba8185612450565b93506124c583612461565b8060005b838110156124f65781516124dd8882612480565b97506124e883612498565b9250506001810190506124c9565b5085935050505092915050565b6000602082019050818103600083015261251d81846124a5565b905092915050565b61252e81611d23565b811461253957600080fd5b50565b60008135905061254b81612525565b92915050565b6000806040838503121561256857612567611b96565b5b600061257685828601611be9565b92505060206125878582860161253c565b9150509250929050565b600080604083850312156125a8576125a7611b96565b5b60006125b685828601611be9565b92505060206125c785828601611be9565b9150509250929050565b600080600080600060a086880312156125ed576125ec611b96565b5b60006125fb88828901611be9565b955050602061260c88828901611be9565b945050604061261d88828901611c1f565b935050606061262e88828901611c1f565b925050608086013567ffffffffffffffff81111561264f5761264e611b9b565b5b61265b888289016120df565b9150509295509295909350565b7f455243313135353a2062616c616e636520717565727920666f7220746865207a60008201527f65726f2061646472657373000000000000000000000000000000000000000000602082015250565b60006126c4602b83611d91565b91506126cf82612668565b604082019050919050565b600060208201905081810360008301526126f3816126b7565b9050919050565b7f4e487b7100000000000000000000000000000000000000000000000000000000600052602260045260246000fd5b6000600282049050600182168061274157607f821691505b60208210811415612755576127546126fa565b5b50919050565b7f455243313135353a207472616e736665722063616c6c6572206973206e6f742060008201527f6f776e6572206e6f7220617070726f7665640000000000000000000000000000602082015250565b60006127b7603283611d91565b91506127c28261275b565b604082019050919050565b600060208201905081810360008301526127e6816127aa565b9050919050565b7f4e487b7100000000000000000000000000000000000000000000000000000000600052603260045260246000fd5b7f4e487b7100000000000000000000000000000000000000000000000000000000600052601160045260246000fd5b600061285682611bfe565b91507fffffffffffffffffffffffffffffffffffffffffffffffffffffffffffffffff8214156128895761288861281c565b5b600182019050919050565b7f455243313135353a206163636f756e747320616e6420696473206c656e67746860008201527f206d69736d617463680000000000000000000000000000000000000000000000602082015250565b60006128f0602983611d91565b91506128fb82612894565b604082019050919050565b6000602082019050818103600083015261291f816128e3565b9050919050565b7f496e76616c696420746f6b656e49640000000000000000000000000000000000600082015250565b600061295c600f83611d91565b915061296782612926565b602082019050919050565b6000602082019050818103600083015261298b8161294f565b9050919050565b600081905092915050565b50565b60006129ad600083612992565b91506129b88261299d565b600082019050919050565b60006129ce826129a0565b9150819050919050565b7f7061796d656e7420746f206f7267616e697a6572206661696c65640000000000600082015250565b6000612a0e601b83611d91565b9150612a19826129d8565b602082019050919050565b60006020820190508181036000830152612a3d81612a01565b9050919050565b7f455243313135353a2063616c6c6572206973206e6f74206f776e6572206e6f7260008201527f20617070726f7665640000000000000000000000000000000000000000000000602082015250565b6000612aa0602983611d91565b9150612aab82612a44565b604082019050919050565b60006020820190508181036000830152612acf81612a93565b9050919050565b7f455243313135353a206d696e7420746f20746865207a65726f2061646472657360008201527f7300000000000000000000000000000000000000000000000000000000000000602082015250565b6000612b32602183611d91565b9150612b3d82612ad6565b604082019050919050565b60006020820190508181036000830152612b6181612b25565b9050919050565b6000612b7382611bfe565b9150612b7e83611bfe565b9250827fffffffffffffffffffffffffffffffffffffffffffffffffffffffffffffffff03821115612bb357612bb261281c565b5b828201905092915050565b6000604082019050612bd36000830185611c74565b612be06020830184611c74565b9392505050565b7f455243313135353a2069647320616e6420616d6f756e7473206c656e6774682060008201527f6d69736d61746368000000000000000000000000000000000000000000000000602082015250565b6000612c43602883611d91565b9150612c4e82612be7565b604082019050919050565b60006020820190508181036000830152612c7281612c36565b9050919050565b7f455243313135353a207472616e7366657220746f20746865207a65726f20616460008201527f6472657373000000000000000000000000000000000000000000000000000000602082015250565b6000612cd5602583611d91565b9150612ce082612c79565b604082019050919050565b60006020820190508181036000830152612d0481612cc8565b9050919050565b7f455243313135353a20696e73756666696369656e742062616c616e636520666f60008201527f72207472616e7366657200000000000000000000000000000000000000000000602082015250565b6000612d67602a83611d91565b9150612d7282612d0b565b604082019050919050565b60006020820190508181036000830152612d9681612d5a565b9050919050565b60006040820190508181036000830152612db781856124a5565b90508181036020830152612dcb81846124a5565b90509392505050565b7f455243313135353a2073657474696e6720617070726f76616c2073746174757360008201527f20666f722073656c660000000000000000000000000000000000000000000000602082015250565b6000612e30602983611d91565b9150612e3b82612dd4565b604082019050919050565b60006020820190508181036000830152612e5f81612e23565b9050919050565b612e6f81611bc0565b82525050565b600081519050919050565b600082825260208201905092915050565b6000612e9c82612e75565b612ea68185612e80565b9350612eb6818560208601611da2565b612ebf81611dd5565b840191505092915050565b600060a082019050612edf6000830188612e66565b612eec6020830187612e66565b612ef96040830186611c74565b612f066060830185611c74565b8181036080830152612f188184612e91565b90509695505050505050565b600081519050612f3381611cca565b92915050565b600060208284031215612f4f57612f4e611b96565b5b6000612f5d84828501612f24565b91505092915050565b60008160e01c9050919050565b600060033d1115612f925760046000803e612f8f600051612f66565b90505b90565b600060443d1015612fa557613028565b612fad611b8c565b60043d036004823e80513d602482011167ffffffffffffffff82111715612fd5575050613028565b808201805167ffffffffffffffff811115612ff35750505050613028565b80602083010160043d038501811115613010575050505050613028565b61301f82602001850186611f49565b82955050505050505b90565b7f455243313135353a207472616e7366657220746f206e6f6e204552433131353560008201527f526563656976657220696d706c656d656e746572000000000000000000000000602082015250565b6000613087603483611d91565b91506130928261302b565b604082019050919050565b600060208201905081810360008301526130b68161307a565b9050919050565b7f455243313135353a204552433131353552656365697665722072656a6563746560008201527f6420746f6b656e73000000000000000000000000000000000000000000000000602082015250565b6000613119602883611d91565b9150613124826130bd565b604082019050919050565b600060208201905081810360008301526131488161310c565b9050919050565b600060a0820190506131646000830188612e66565b6131716020830187612e66565b818103604083015261318381866124a5565b9050818103606083015261319781856124a5565b905081810360808301526131ab8184612e91565b9050969550505050505056fea2646970667358221220bb39c030c449f68d3ef09d820ec8f7ac24c7ac465dfce6aa83e7d930c7bd6e0764736f6c634300080a0033",
  "linkReferences": {},
  "deployedLinkReferences": {}
}